:100000000C9460030C947D030C947D030C947D038D
:100010000C947D030C947D030C947D030C947D0360
:100020000C947D030C947D030C947D030C947D0350
:100030000C947D030C947D030C947D030C947D0340
:100040000C945A040C947D030C947D030C947D0352
:100050000C9442040C947D030C947D030C947D035A
:100060000C947D030C947D030C947D030C947D0310
:1000700000000000005C00000C000C007C287C28C4
:1000800058DC68002410480028542840000C000068
:10009000007884008478000054385400107C1000EC
:1000A00080400000101010000040000060100C00A4
:1000B00038543800487C40004864580044542C00B0
:1000C0001C107C005C5424003854240064140C0080
:1000D00068542C0048543800004800008048000054
:1000E0001028440028282800442810000454080040
:1000F00038445C00781478007C5428003844280088
:100100007C4438007C5444007C140400384474005F
:100110007C107C00447C440020403C007C106C003F
:100120007C4040007C187C0078103C00384438004B
:100130007C1408003844B8007C146800485424003B
:10014000047C04007C407C003C603C007C307C00F3
:100150006C106C000C700C0064544C00007C44006B
:100160000C106000447C00000804080080808000BF
:1001700000040800304878007C48300030484800CF
:1001800030487C00306850001078140090A8780047
:100190007C08700050744000808074007C106800FF
:1001A000447C4000781078007808700030483000B7
:1001B000F82810003048F80078100800505828003F
:1001C000083C4800384078003840380078207800F3
:1001D0004830480098A0780048685800107884009B
:1001E000007C00008478100008040804000000006F
:1001F0000000005F00000007000700147F147F1458
:10020000242A7F2A1223130864623649552250009B
:1002100005030000001C2241000041221C00082AA6
:100220001C2A0808083E080800503000000808088A
:100230000808006060000020100804023E51494593
:100240003E00427F400042615149462141454B31C9
:100250001814127F1027454545393C4A4949300159
:10026000710905033649494936064949291E0036B0
:100270003600000056360000000814224114141401
:10028000141441221408000201510906324979412F
:100290003E7E1111117E7F494949363E414141223E
:1002A0007F4141221C7F494949417F090901013EA3
:1002B000414151327F0808087F00417F41002040C2
:1002C000413F017F081422417F404040407F0204AB
:1002D000027F7F0408107F3E4141413E7F090909AA
:1002E000063E4151215E7F09192946464949493157
:1002F00001017F01013F4040403F1F2040201F7F00
:100300002018207F631408146303047804036151E8
:1003100049454300007F4141020408102041417FCC
:100320000000040201020440404040400001020479
:100330000020545454787F4844443838444444207E
:10034000384444487F3854545418087E0901020840
:100350001454543C7F0804047800447D400020403D
:10036000443D00007F10284400417F40007C041879
:1003700004787C0804047838444444387C14141409
:1003800008081414187C7C080404084854545420A9
:10039000043F4440203C4040207C1C2040201C3C2A
:1003A0004030403C44281028440C5050503C446499
:1003B000544C44000836410000007F0000004136E4
:1003C000080002010302010000000000000000001C
:1003D000065F5F0600000000070700070700001423
:1003E0007F7F147F7F1400242E6B6B3A120000462F
:1003F0006630180C666200307A4F5D377A48000428
:1004000007030000000000001C3E634100000000E4
:1004100041633E1C000000082A3E1C1C3E2A0808BE
:10042000083E3E0808000000A0E060000000000850
:100430000808080808000000006060000000006074
:1004400030180C060301003E7F594D7F3E000042EC
:10045000427F7F40400000627359496F660000226E
:100460006349497F360000181C16137F7F10002750
:100470006745457D3900003C7E4B497930000003DB
:100480006371190F070000367F49497F3600000667
:100490004F49693F1E000000006C6C000000000026
:1004A000A0EC6C00000000081C3663410000001442
:1004B00014141414140000004163361C08000002D8
:1004C0000351590F0600003E7F415D5D1F1E007CF9
:1004D0007E13137E7C0000417F7F49497F36001CDC
:1004E0003E634141632200417F7F41637F1C0041A5
:1004F0007F7F495D416300417F7F491D0103001CEF
:100500003E6341517372007F7F08087F7F000000C7
:10051000417F7F41000000307040417F3F0100413A
:100520007F7F081C776300417F7F41406070007FC0
:100530007F060C067F7F007F7F060C187F7F001CE4
:100540003E6341633E1C00417F7F49090F06001E48
:100550003F21717F5E0000417F7F19396F46002681
:10056000674D597B32000003417F7F410300007FCC
:100570007F40407F7F00001F3F60603F1F00007F83
:100580007F3018307F7F0063771C081C776300077B
:100590004F78784F0700006773594D47637100002B
:1005A0007F7F41410000000103060C18306000000D
:1005B00041417F7F000000080C0603060C08008004
:1005C000808080808080800000030704000000207D
:1005D0007454543C784000413F7F44447C38003898
:1005E0007C44446C280000307848493F7F40003804
:1005F0007C54545C180000487E7F49030200009838
:10060000BCA4A4F87C0400417F7F08047C7800002F
:10061000447D7D4000000040C484FD7D0000004119
:100620007F7F10386C440000417F7F400000007CD9
:100630007C0C180C7C78007C7C04047C78000038EE
:100640007C44447C38000084FCF8A4243C18001846
:100650003C24A4F8FC8400447C78441C1800004826
:100660005C54547424000000043E7F442400003C89
:100670007C40403C7C40001C3C60603C1C00003CDA
:100680007C6030607C3C00446C3810386C44009CCA
:10069000BCA0A0FC7C00004C64745C4C64000008AE
:1006A000083E7741410000000000777700000041DC
:1006B00041773E0808000002030103020301000025
:1006C00011241FBECFEFD4E0DEBFCDBF12E0A0E00B
:1006D000B1E0E8E0FDE102C005900D92AE3AB1074D
:1006E000D9F722E0AEEAB2E001C01D92A33DB20705
:1006F000E1F70E9490030C94820E0C9400000E947B
:100700003B0860E080E091E00E9480082FE38DE0EC
:1007100093E0215080409040E1F700C00000F1CF0D
:100720008FE190E00E9417040E946E040E947705FA
:100730000E94B5050E94A0060E9424040E943B0866
:100740002FEF84E39CE0215080409040E1F700C00F
:10075000000089E291E00E94380A0E94FE050E9492
:10076000D70601EC12E0C7E3D1E029C081E090E0B8
:100770000E9411072AC081E090E00E94A50584E054
:100780000E9495062DE02A95F1F700000E94C6050B
:100790000E94C6050E94C60566EB72E08AEB92E0F5
:1007A0000E9457054EEA52E06AEB72E086EB92E057
:1007B0000E94710780E00E94BE07811111C08091E4
:1007C000B0029091B102019789F28091B2029091AA
:1007D000B302892B81F21092B3021092B202CBCFF6
:1007E0008EEB92E00E94D9081F930F93EEEBF2E09C
:1007F00082811F928F9381818F9380818F93DF936A
:10080000CF930E94220A8DB79EB708960FB6F89430
:100810009EBF0FBE8DBFD3CF159BFECF83B990E097
:1008200080E00895179BFECF83B190E008959CBFB0
:1008300080B988E181B98EE88CBF62E174E08CE018
:1008400094E00E94D7090895F8940F9A88E083BF36
:1008500080910B0120E0382F330F330F032E000C53
:10086000440B550B60E070E08BE490E00E94260999
:10087000215021BF89B7816089BF83B7856083BF5D
:10088000789408951F920F920FB60F9211248F93B0
:100890009F9383B1813639F09F918F910F900FBE56
:1008A0000F901F90189581E090E09093B302809391
:1008B000B202F2CF1F920F920FB60F9211248F93B4
:1008C0009F9381E090E09093B1028093B0029F915A
:1008D0008F910F900FBE0F901F90189585B780686D
:1008E00085BF80B7806280BF0895FB01FC5E808376
:1008F00008959C5EFC0180810895CF92DF92EF9273
:10090000FF920F931F93CF93DF9381E691E00E94B4
:10091000380A0E94C7096C010E94CC09D0E0C0E0EF
:1009200010E000E00F2EF8E7EF2EF1E0FF2EF02DA3
:1009300005C02196C11598E0D907F1F00E94C709BA
:10094000FE01F85E80832081281799F399279F93F1
:100950008F931F922F93DF93CF93FF92EF920E947A
:10096000220A0F5F1F4F8DB79EB708960FB6F894F7
:100970009EBF0FBE8DBFDDCFC6010E94CC09D0E067
:10098000C0E0F12CE12C0F2EF2EBCF2EF1E0DF2EA8
:10099000F02D05C02196C11598E0D907F1F00E940D
:1009A000C709FE01F85E20812817A1F399279F93BC
:1009B0008F931F922F93DF93CF93DF92CF920E945A
:1009C000220A8FEFE81AF80A8DB79EB708960FB67D
:1009D000F8949EBF0FBE8DBFDDCFFF92EF921F93A5
:1009E0000F9380EF91E09F938F930E94220A0F90C4
:1009F0000F900F900F900F900F90DF91CF911F915C
:100A00000F91FF90EF90DF90CF9008950895089593
:100A1000FC0180810895362F482F883F08F047EF6A
:100A2000403408F440E4232F393F08F028EF203405
:100A300008F420E4803AF8F0405A550B64E6649FCD
:100A4000C001659F900D112467E570E00E941209B6
:100A5000FB013E39F0F42E59330B44E6429FC001AE
:100A6000439F900D11246EE570E00E9412099B01D6
:100A7000BF01C9010895405A550B64E6649FC00147
:100A8000659F900D112460E670E00E941209FB0141
:100A9000E0CF2E59330B44E6429FC001439F900D97
:100AA00011246AE570E00E9412099B01E1CFCF9307
:100AB000DF93DC01EB0110920010849BFECFE0E09D
:100AC000F0E180816081208130E011963C932E938B
:100AD000208130E013963C932E9312970E940B05D1
:100AE000688379838A839B83DF91CF9108958D9A60
:100AF00080E48FBD89E08EBD1BBC1ABC0895CF93E6
:100B0000DF938DE492E00E94380A0E94C7090E9498
:100B1000CC0980910D0190910E01892B79F0D0E0E4
:100B2000C0E00E94C709FE01F05F8083219680919A
:100B30000D0190910E01C817D90798F383E692E052
:100B40000E94380ADF91CF910895C49A909A919AA1
:100B50008130910531F018F0029729F00895C4987A
:100B60000895909808959198089587B3806B87BBF6
:100B700081B3876081BB83E090E00E94A50581E599
:100B80008DB908958FB9779BFECF08951FB8779BD5
:100B9000FECF8FB108950F931F93CF93DF93141659
:100BA000150654F48C01EC01040F151F89910E9465
:100BB000C205C017D107D1F7DF91CF911F910F91D7
:100BC00008950F931F93CF93DF931416150654F4D3
:100BD0008C01EC01040F151F0E94C6058993C017F4
:100BE000D107D1F7DF91CF911F910F910895880F11
:100BF000991F880F991F875E9E4F0895E0E0F4E1EA
:100C00001192E11588E1F807D9F7089590E8699FF6
:100C1000B0011124860F972F911D0895AF92BF92B6
:100C2000DF92EF92FF920F931F93CF93DF93A62F44
:100C3000F901EE0FFF1FEE0FFF1FE75EFE4FE08092
:100C4000F1807281483008F05FC066230CF45FC009
:100C500020E8429FA00111249A01C82FD92F0F2EFE
:100C6000FFE3DF2EF02D072F10E091E037C0F801F1
:100C7000EA0FF11DE138F10508F04CC08A2F772307
:100C800019F1A62E660FBB0880E2A81AB108A09E33
:100C9000F001A19EF00DB09EF00D1124EE0DFF1D90
:100CA000BA2EB70E649181E08A0FA40FB52FB11D43
:100CB000BC5E6C93D901A80FB11DA150B84E9C9396
:100CC0003196A82FB812EECFA82F88233CF0A1E0D0
:100CD000A80FFA01E80FF11DFC5E108269916623EE
:100CE00039F080EE860F8F3508F4C1CF6D2DBFCF60
:100CF00090E080E0DF91CF911F910F91FF90EF90F6
:100D0000DF90BF90AF9008958FEF9FEFF3CF8FEFFD
:100D10009FEFF0CF90E080E0EDCF08950895892B0C
:100D200011F0929A089592980895CF93C82F90E069
:100D300080E00E948F068C2F0E94C205CF910895FB
:100D400082E090E00E94A50581EA0E94950688EC69
:100D50000E9495068FEA0E94950683E090E00E942B
:100D6000A5050895CF93C82F82E20E9495068C2F87
:100D70000E94950687E00E949506CF910895CF9333
:100D8000C82F81E20E9495068C2F0E9495068FE75E
:100D90000E949506CF910895CF93C82F81E090E0EF
:100DA0000E948F068C2F0E94C205CF910895CF9389
:100DB000DF9382E090E00E94A50580E20E94950604
:100DC00080E00E94950682E20E94950680E00E94E3
:100DD000950687E00E949506C0E0D4E080E00E947E
:100DE000CC062197D9F783E090E00E94A505DF911A
:100DF000CF910895CF93DF93C82FD62F842F0E94D1
:100E0000B2068D2F0E94BF068C2F0E94CC0690E068
:100E100080E0DF91CF9108950E94CC0690E080E0C1
:100E20000895DF92EF92FF920F931F93CF93DF937A
:100E3000EC0182E090E00E94A50580E20E94950608
:100E400080E00E949506C130D10599F0229709F4FF
:100E500041C08091B0029091B10283E090E00E9485
:100E6000A505DF91CF911F910F91FF90EF90DF903B
:100E7000089580E00E94B20680E00E94BF06C0E0B4
:100E8000D4E18E0100581F4F89910E94CC06C017F3
:100E9000D107D1F7C11588E1D80799F7DACF2196A4
:100EA000C017D10769F088818130C9F7FE01F4507D
:100EB00080814D2D6C2F6E190E94FA061882EFCF9B
:100EC000D3947E0188E0D81621F2870100581F4F85
:100ED000E701E9CFD12C0F2EE12CF8E1FF2EF02D08
:100EE000F4CF0F931F93CF93DF93FA0120813181C9
:100EF00021153105F1F02130310579F122E030E0A2
:100F000040E06DE288E992E00E940E0621E030E0C8
:100F100042E060E2C8010E940E0621E030E044E0B9
:100F200060E2CE010E940E06DF91CF911F910F91DA
:100F30000895FC0182819381C8E7D2E000E812E0C5
:100F4000863F9F4FDCF681E090E0FA019183808339
:100F5000C8E7D2E000E812E0D1CFFC0182819381A2
:100F6000C8E8D2E000E912E00B9744F2FA011182DE
:100F70001082C8E8D2E000E912E0C0CFCF93C82FBA
:100F800090E080E00E94A50583E00E94C2058C2FBE
:100F90000E94C2050E94C605C82F83E090E00E940F
:100FA000A5058C2FCF910895CF93DF93D82FC62F0F
:100FB00090E080E00E94A50582E00E94C2058D2F8E
:100FC0000E94C2058C2F0E94C20583E090E00E941F
:100FD000A505DF91CF910895CF93C82F90E080E0D1
:100FE0000E94A5058C2F80680E94C20583E090E0D6
:100FF0000E94A505CF9108951F93CF93DF93182FDB
:10100000C62FD42F90E080E00E94A50585E00E94C5
:10101000C205812F0E94C2058D2F0E94C2058C2F10
:101020000E94C20583E090E00E94A505DF91CF9168
:101030001F91089590E080E00E94A50580EA0E943B
:10104000C20583E090E00E94A505089590E080E04D
:101050000E94A50580EC0E94C20583E090E00E94FA
:10106000A5050895682F6295660F607E40EE8FE0BB
:101070000E94FC0708950E94B5050E94260884E09E
:101080000E9432088EE00E94BE07807E803831F0D8
:101090008EE00E94BE07807E8038D1F761E48AE24C
:1010A0000E94D40761EF89E20E94D40765E888E2D4
:1010B0000E94D40760E080E60E94D40760E080E2EE
:1010C0000E94D40760E081E20E94D40760E080E0E3
:1010D0000E94D40760E081E00E94D40780E00E9473
:1010E00032088EE00E94BE07807E29F08EE00E94CA
:1010F000BE07807ED9F78DE992E00E94380A0895F4
:10110000FF920F931F93CF93DF93613039F008F470
:101110004EC0623009F045C0D1E501C0D1E4F62EE1
:101120008C01FC0160817181769567957695679554
:10113000769567958D2F0E94D407F801608162959E
:10114000660F607E81E08D0F0E94D40760E082E030
:101150008D0F0E94D40760E083E08D0F0E94D407BA
:10116000F80162816F7084E08D0F0E94D407F8014E
:101170008281882379F0C0E0DB5FF801EC0FF11D7C
:1011800063818D2F8C0F0E94D407CF5FF80182817D
:10119000C81798F381E001C0880FFA94EAF70E941B
:1011A000EC07DF91CF911F910F91FF900895D1E34C
:1011B000B6CF0F931F93CF938C0181E60E94BE0799
:1011C000C82F82E60E94BE072C2F30E0220F331F6B
:1011D000220F331F220F331F829586958770282B8D
:1011E000F8013183208385E60E94BE078F70F801E5
:1011F0008283882371F0C0E086E68C0F0E94BE07D0
:10120000F801EC0FF11D8383CF5FF8018281C817CD
:1012100098F341E060E08CE20E94FC07CF911F91BF
:101220000F91089597FB072E16F4009407D077FDD1
:1012300009D00E94450907FC05D03EF490958195A0
:101240009F4F0895709561957F4F0895052E97FBE8
:101250001EF400940E943D0957FD07D00E945909D1
:1012600007FC03D04EF40C943D0950954095309501
:1012700021953F4F4F4F5F4F089590958095709502
:1012800061957F4F8F4F9F4F0895AA1BBB1B51E164
:1012900007C0AA1FBB1FA617B70710F0A61BB70BE6
:1012A000881F991F5A95A9F780959095BC01CD018B
:1012B0000895A1E21A2EAA1BBB1BFD010DC0AA1F97
:1012C000BB1FEE1FFF1FA217B307E407F50720F0AF
:1012D000A21BB30BE40BF50B661F771F881F991F2A
:1012E0001A9469F760957095809590959B01AC0173
:1012F000BD01CF0108958F929F92AF92BF92CF927E
:10130000DF92EF92FF92CF93DF93EC0168817981B6
:101310008A819B81611571058105910521F464E243
:1013200079ED8BE597E02DE133EF41E050E00E944D
:10133000260949015A019B01AC01A7EAB1E40E94C8
:10134000290E6B017C01ACEEB4EFA50194010E9463
:10135000370EDC01CB018C0D9D1DAE1DBF1DB7FFEF
:1013600003C00197A109B04888839983AA83BB83EE
:101370009F77DF91CF91FF90EF90DF90CF90BF905C
:10138000AF909F908F9008950E947B0908958FE001
:1013900091E00E947B090895B0E0A0E080930F01E6
:1013A00090931001A0931101B093120108950F932F
:1013B0001F93CF93DF93009759F46115710541F4A2
:1013C000F0E0E0E0CF01DF91CF911F910F91089500
:1013D0008B01EC016EE070E081E090E00E943D0C3A
:1013E000FC01892B69F380E883830115110571F0F5
:1013F0001387028781E883838091C9029091CA0292
:10140000892B21F4F093CA02E093C9022097D1F20C
:10141000D187C0878381826083838091CB02909142
:10142000CC02892B79F6F093CC02E093CB02809129
:10143000CD029091CE02892B29F6F093CE02E09353
:10144000CD02C0CFB0E0A0E0E8E2FAE00C944C0E90
:10145000AE014B5F5F4FFA0161917191AF018091D5
:10146000CB029091CC020E94630AE2E00C94680ED9
:101470000F931F93CF93DF93E091CB02F091CC02B7
:101480002381EC0110E000E021FD08C00FEF1FEF09
:1014900014C00995892B11F00FEF1FEF899160910E
:1014A000CB027091CC02DB011896ED91FC91811179
:1014B000F0CF8AE00995892B49F7C801DF91CF91D8
:1014C0001F910F910895ABE0B0E0E9E6FAE00C94CB
:1014D0003C0E7C013B018A01FC011782168283814C
:1014E00081FFC8C1CE0101965C01F7019381F30130
:1014F00093FD859193FF81913F01882309F453C1A6
:10150000853239F493FD859193FF81913F018532B6
:1015100029F4B70190E00E949B0DE7CF912C212C7C
:10152000312CFFE1F31538F08B3211F190F4803259
:1015300009F1833229F137FC3CC020ED280F2A3015
:1015400050F536FE20C08AE0989E200D1124922E80
:1015500006C08D3291F0803371F7689430F8F30152
:1015600093FD859193FF81913F018111DACF21C0D5
:10157000689431F8689432F8F2CF689433F8EFCF7A
:10158000689434F8ECCFEAE02E9E200D1124222E30
:10159000689435F8E4CF8E3229F436FC04C168949F
:1015A00036F8DDCF8C3619F4689437F8D8CF883602
:1015B000B1F2982F9F7D95549330E0F08336A1F1DE
:1015C0008337C1F1833509F063C02801F2E04F0E83
:1015D000511CF801C080D180692D70E036FC02C03A
:1015E0006FEF7FEFC6010E947E0D4C01689437F8C3
:1015F00082010AC00C5F1F4FFFE3F98388248394A4
:10160000912C6501E89437F833FE2DC0522C8114DB
:10161000910471F5552009F468CFB70180E290E09C
:101620000E949B0D5A94F6CFF801808189830E5F4A
:101630001F4FE4CF2801F2E04F0E511CF801C0808B
:10164000D180692D70E036FC02C06FEF7FEFC601DC
:101650000E94900D4C018201D5CFB70180E290E04D
:101660000E949B0D2A942814190409F0B0F7CECFDC
:10167000F60137FC859137FE81916F01B70190E04B
:101680000E949B0D51105A94F1E08F1A9108BFCF20
:10169000843619F0893609F077C0F80137FE6BC03F
:1016A00060817181828193810C5F1F4FF32DFF76E2
:1016B0003F2E97FF09C090958095709561957F4F5B
:1016C0008F4F9F4F689437F82AE030E0A5010E94C1
:1016D000CB0DC82ECA188C2C432C36FE0CC0E894B7
:1016E00040F8C91440F434FE05C032FC03C0F32DA9
:1016F000FE7E4F2E892C44FE95C0FE01EC0DF11D9F
:101700008081803309F087C0242D297E422E842DCC
:101710008870582E43FC95C040FE8FC09C2C8214CC
:1017200018F42C0C922C981844FE91C0B70180E359
:1017300090E00E949B0D42FE09C088E790E041FEC8
:1017400002C088E590E0B7010E949B0DC91408F41F
:101750008AC0CA94D12C9FEFC91AD90ACA0CDB1CC3
:10176000F60182916F01B70190E00E949B0DAC14CD
:10177000BD04B1F74FCF60817181072E000C880B3B
:10178000990B0E5F1F4F92CFD32CE894D4F82AE028
:1017900030E0853739F1232D297FD22E8F3601F1A4
:1017A00048F48835A9F0F701868197812B96E2E10C
:1017B0000C94580E803749F08837A9F7D4FE02C040
:1017C0006894D2F820E130E00DC06894D4F8F6CFE8
:1017D00034FE03C0822F8660D82E20E132E002C0A2
:1017E00028E030E0F801D7FE0FC06081718182816E
:1017F00093810C5F1F4FA5010E94CB0DC82ECA1804
:101800003D2CE89437F867CF6081718190E080E0EB
:101810000E5F1F4FF0CF42FC02C0839478CF8394B9
:10182000839475CF842D867809F471CFF6CFB701F4
:1018300080E290E00E949B0D83948214C0F3512CAF
:1018400073CF522C5818821408F46ECFF8CF842D21
:10185000867809F47BCF8BE241FE80E247FC8DE283
:10186000B70190E071CFB70180E390E00E949B0D3B
:101870009A946CCF8FEF9FEF99CF0F931F93CF93D5
:10188000DF93869F8001879F100D969F100D112476
:10189000C8010E94590CEC01009729F0A80170E0E2
:1018A00060E00E94890DCE01DF91CF911F910F91D1
:1018B00008950F931F93CF93DF938230910510F417
:1018C00082E090E0E091D102F091D20230E020E09D
:1018D000B0E0A0E0309799F42115310509F44AC031
:1018E000281B390B24303105D8F58A819B8161157D
:1018F000710589F1FB0193838283FE0111C0408150
:1019000051810281138148175907E0F048175907A0
:1019100099F4109761F012960C93129713961C93FA
:101920003296CF01DF91CF911F910F9108950093CF
:10193000D1021093D202F4CF2115310551F0421794
:10194000530738F0A901DB019A01BD01DF01F8015D
:10195000C1CFEF01F9CF9093D2028093D102CDCFC6
:10196000FE01E20FF31F81939193225031093983D5
:101970002883D7CF2091CF023091D002232B41F47E
:1019800020911501309116013093D0022093CF029F
:1019900020911301309114012115310541F42DB727
:1019A0003EB74091170150911801241B350BE0916F
:1019B000CF02F091D002E217F307A0F42E1B3F0BE9
:1019C0002817390778F0AC014E5F5F4F24173507B1
:1019D00048F04E0F5F1F5093D0024093CF02819387
:1019E00091939FCFF0E0E0E09CCFCF93DF930097FF
:1019F000E9F0FC01329713821282A091D102B091DA
:101A0000D202ED0130E020E01097A1F42081318175
:101A1000820F931F2091CF023091D00228173907EF
:101A200009F061C0F093D002E093CF02DF91CF9133
:101A30000895EA01CE17DF07E8F54A815B819E0130
:101A400041155105B1F7E901FB83EA8349915991A9
:101A5000C40FD51FEC17FD0761F4808191810296B8
:101A6000840F951FE90199838883828193819B83E9
:101A70008A83F0E0E0E012968D919C911397009795
:101A8000B9F52D913C911197CD010296820F931FCC
:101A90002091CF023091D0022817390739F63097BC
:101AA00051F51092D2021092D102B093D002A093BD
:101AB000CF02BCCFD383C28340815181840F951F55
:101AC000C817D90761F44E5F5F4F88819981480F2D
:101AD000591F518340838A819B819383828321157F
:101AE000310509F0B0CFF093D202E093D1029ECF3E
:101AF000FD01DC01C0CF13821282D7CFFC0105901B
:101B0000615070400110D8F7809590958E0F9F1FFF
:101B10000895DC0101C06D9341505040E0F70895F5
:101B2000FC016150704001900110D8F780959095AC
:101B30008E0F9F1F08950F931F93CF93DF93182F3E
:101B4000092FEB018B8181FD09C01FEF0FEF812F62
:101B5000902FDF91CF911F910F91089582FF14C0B4
:101B60002E813F818C819D81281739073CF4E881C3
:101B7000F981CF0101969983888310838E819F819B
:101B800001969F838E83E3CFE885F985812F0995A0
:101B9000892BA1F3DACFFA01AA27283051F120319D
:101BA00081F1E8946F936E7F6E5F7F4F8F4F9F4FF1
:101BB000AF4FB1E03ED0B4E03CD0670F781F891F33
:101BC0009A1FA11D680F791F8A1F911DA11D6A0F01
:101BD000711D811D911DA11D20D009F468943F91B4
:101BE0002AE0269F11243019305D3193DEF6CF01B3
:101BF0000895462F4770405D4193B3E00FD0C9F779
:101C0000F6CF462F4F70405D4A3318F0495D31FDE5
:101C10004052419302D0A9F7EACFB4E0A695979538
:101C2000879577956795BA95C9F70097610571050E
:101C300008959B01AC010A2E069457954795379558
:101C40002795BA95C9F7620F731F841F951FA01DB2
:101C500008950E94730EA59F900DB49F900DA49FB0
:101C6000800D911D11240895B7FF0C94290E0E9438
:101C7000290E821B930B08952F923F924F925F92F1
:101C80006F927F928F929F92AF92BF92CF92DF928C
:101C9000EF92FF920F931F93CF93DF93CDB7DEB7F1
:101CA000CA1BDB0B0FB6F894DEBF0FBECDBF099485
:101CB0002A88398848885F846E847D848C849B84DC
:101CC000AA84B984C884DF80EE80FD800C811B81EA
:101CD000AA81B981CE0FD11D0FB6F894DEBF0FBE19
:101CE000CDBFED010895A29FB001B39FC001A39F96
:101CF000700D811D1124911DB29F700D811D112445
:081D0000911D0895F894FFCF36
:101D080036000238000000000000001E0000040138
:101D18000000000000D302200070000406EC01055A
:101D280007C703080800180014496E697469616CD4
:101D3800697A696E670D0043414E204D6573736182
:101D480067652C2049443A202564204C656E6774E9
:101D5800683A20256420446174613A2025640D0A9C
:101D6800005374617274696E67205352414D207438
:101D78006573742E2E2E0D00577269746520706875
:101D8800617365206572726F723A206578745F724C
:101D9800616D5B2534645D203D2025303258202854
:101DA80073686F756C642062652025303258290D80
:101DB8000A0052657472696576616C207068617397
:101DC80065206572726F723A206578745F72616D12
:101DD8005B2534645D203D20253032582028736807
:101DE8006F756C642062652025303258290D0A0011
:101DF8005352414D207465737420636F6D706C6528
:101E08007465642077697468200D0A253464206538
:101E180072726F727320696E2077726974652070B0
:101E28006861736520616E64200D0A25346420653D
:101E380072726F727320696E20726574726965764A
:101E4800616C2070686173650D0A0D0A0053746136
:101E58007274696E672041444320746573742E2E32
:101E68002E0D00414443207465737420636F6D70B8
:101E78006C657465640D0A0020202045584954009B
:101E88002D3E20504C4159002D3E204558495400C4
:101E9800202020504C4159004D454E5500494E20B8
:0E1EA8004E4F524D414C204D4F4445200D00F1
:00000001FF
