:100000000C9460030C947D030C947D030C947D038D
:100010000C947D030C947D030C947D030C947D0360
:100020000C947D030C947D030C9493040C947D0339
:100030000C947D030C947D030C947D030C947D0340
:100040000C9484040C947D030C947D030C947D0328
:100050000C9471040C947D030C947D030C947D032B
:100060000C947D030C947D030C947D030C947D0310
:1000700000000000005C00000C000C007C287C28C4
:1000800058DC68002410480028542840000C000068
:10009000007884008478000054385400107C1000EC
:1000A00080400000101010000040000060100C00A4
:1000B00038543800487C40004864580044542C00B0
:1000C0001C107C005C5424003854240064140C0080
:1000D00068542C0048543800004800008048000054
:1000E0001028440028282800442810000454080040
:1000F00038445C00781478007C5428003844280088
:100100007C4438007C5444007C140400384474005F
:100110007C107C00447C440020403C007C106C003F
:100120007C4040007C187C0078103C00384438004B
:100130007C1408003844B8007C146800485424003B
:10014000047C04007C407C003C603C007C307C00F3
:100150006C106C000C700C0064544C00007C44006B
:100160000C106000447C00000804080080808000BF
:1001700000040800304878007C48300030484800CF
:1001800030487C00306850001078140090A8780047
:100190007C08700050744000808074007C106800FF
:1001A000447C4000781078007808700030483000B7
:1001B000F82810003048F80078100800505828003F
:1001C000083C4800384078003840380078207800F3
:1001D0004830480098A0780048685800107884009B
:1001E000007C00008478100008040804000000006F
:1001F0000000005F00000007000700147F147F1458
:10020000242A7F2A1223130864623649552250009B
:1002100005030000001C2241000041221C00082AA6
:100220001C2A0808083E080800503000000808088A
:100230000808006060000020100804023E51494593
:100240003E00427F400042615149462141454B31C9
:100250001814127F1027454545393C4A4949300159
:10026000710905033649494936064949291E0036B0
:100270003600000056360000000814224114141401
:10028000141441221408000201510906324979412F
:100290003E7E1111117E7F494949363E414141223E
:1002A0007F4141221C7F494949417F090901013EA3
:1002B000414151327F0808087F00417F41002040C2
:1002C000413F017F081422417F404040407F0204AB
:1002D000027F7F0408107F3E4141413E7F090909AA
:1002E000063E4151215E7F09192946464949493157
:1002F00001017F01013F4040403F1F2040201F7F00
:100300002018207F631408146303047804036151E8
:1003100049454300007F4141020408102041417FCC
:100320000000040201020440404040400001020479
:100330000020545454787F4844443838444444207E
:10034000384444487F3854545418087E0901020840
:100350001454543C7F0804047800447D400020403D
:10036000443D00007F10284400417F40007C041879
:1003700004787C0804047838444444387C14141409
:1003800008081414187C7C080404084854545420A9
:10039000043F4440203C4040207C1C2040201C3C2A
:1003A0004030403C44281028440C5050503C446499
:1003B000544C44000836410000007F0000004136E4
:1003C000080002010302010000000000000000001C
:1003D000065F5F0600000000070700070700001423
:1003E0007F7F147F7F1400242E6B6B3A120000462F
:1003F0006630180C666200307A4F5D377A48000428
:1004000007030000000000001C3E634100000000E4
:1004100041633E1C000000082A3E1C1C3E2A0808BE
:10042000083E3E0808000000A0E060000000000850
:100430000808080808000000006060000000006074
:1004400030180C060301003E7F594D7F3E000042EC
:10045000427F7F40400000627359496F660000226E
:100460006349497F360000181C16137F7F10002750
:100470006745457D3900003C7E4B497930000003DB
:100480006371190F070000367F49497F3600000667
:100490004F49693F1E000000006C6C000000000026
:1004A000A0EC6C00000000081C3663410000001442
:1004B00014141414140000004163361C08000002D8
:1004C0000351590F0600003E7F415D5D1F1E007CF9
:1004D0007E13137E7C0000417F7F49497F36001CDC
:1004E0003E634141632200417F7F41637F1C0041A5
:1004F0007F7F495D416300417F7F491D0103001CEF
:100500003E6341517372007F7F08087F7F000000C7
:10051000417F7F41000000307040417F3F0100413A
:100520007F7F081C776300417F7F41406070007FC0
:100530007F060C067F7F007F7F060C187F7F001CE4
:100540003E6341633E1C00417F7F49090F06001E48
:100550003F21717F5E0000417F7F19396F46002681
:10056000674D597B32000003417F7F410300007FCC
:100570007F40407F7F00001F3F60603F1F00007F83
:100580007F3018307F7F0063771C081C776300077B
:100590004F78784F0700006773594D47637100002B
:1005A0007F7F41410000000103060C18306000000D
:1005B00041417F7F000000080C0603060C08008004
:1005C000808080808080800000030704000000207D
:1005D0007454543C784000413F7F44447C38003898
:1005E0007C44446C280000307848493F7F40003804
:1005F0007C54545C180000487E7F49030200009838
:10060000BCA4A4F87C0400417F7F08047C7800002F
:10061000447D7D4000000040C484FD7D0000004119
:100620007F7F10386C440000417F7F400000007CD9
:100630007C0C180C7C78007C7C04047C78000038EE
:100640007C44447C38000084FCF8A4243C18001846
:100650003C24A4F8FC8400447C78441C1800004826
:100660005C54547424000000043E7F442400003C89
:100670007C40403C7C40001C3C60603C1C00003CDA
:100680007C6030607C3C00446C3810386C44009CCA
:10069000BCA0A0FC7C00004C64745C4C64000008AE
:1006A000083E7741410000000000777700000041DC
:1006B00041773E0808000002030103020301000025
:1006C00011241FBECFEFD4E0DEBFCDBF12E0A0E00B
:1006D000B1E0E8EBFEE102C005900D92AE3AB10741
:1006E000D9F722E0AEEAB2E001C01D92A43DB20704
:1006F000E1F70E9490030C945A0F0C9400000E94A2
:10070000760860E080E091E00E94BB082FE38DE076
:1007100093E0215080409040E1F700C00000F1CF0D
:100720008FE190E00E942C048BE291E00E94100B7C
:100730000E94A2040E94B2050E94F0050E94DB06FE
:100740000E9439040E9476082FEF84E39CE0215038
:1007500080409040E1F700C000000E9439060E94EE
:10076000120709E311E03BC081E090E00E944C07D2
:100770001092B10238C08091B00281113BC081E07B
:1007800090E00E94E00584E00E94D0069DE09A95EA
:10079000F1F700000E9401060E9401060E94010676
:1007A000C82F83E090E00E94E00545EB52E067EB44
:1007B00072E08BEB92E00E948B054EEA52E06BEB0D
:1007C00072E087EB92E00E94AC07E0E0F1E0A5EB7D
:1007D000B2E08C91838311968C918483C583809140
:1007E000B102813009F28091B202882321F2109285
:1007F000B202C1CF8FEB92E00E944D09892B41F4E8
:1008000060E080E091E00E94BB081092B002B7CF98
:10081000EFEBF2E083811F928F9382811F928F937F
:1008200081818F9380818F931F930F930E94FA0A87
:100830008DB79EB708960FB6F8949EBF0FBE8DBFBA
:10084000DFCF159BFECF83B990E080E00895179B22
:10085000FECF83B190E008959CBF80B988E181B953
:100860008EE88CBF67E274E081E294E00E94AF0AF8
:100870000895F8940F9A88E083BF80910D0120E0DD
:10088000382F330F330F032E000C440B550B60E051
:1008900070E08BE490E00E94200A215021BF89B7CC
:1008A000816089BF83B7856083BF17BC13BC20916B
:1008B0000B0130910C01032E000C440B550B60EC26
:1008C00072E180E090E00E94FE09215022BD88B7CD
:1008D000806188BF89B7806189BF8FE087BD7894C8
:1008E00008951F920F920FB60F9211248F9383B128
:1008F000813631F08F910F900FBE0F901F90189599
:1009000081E08093B202F6CF1F920F920FB60F9242
:1009100011248F9381E08093B1028F910F900FBECD
:100920000F901F9018951F920F920FB60F921124DF
:100930008F9381E08093B0028F910F900FBE0F9044
:100940001F90189585B7806885BF80B7806280BF8B
:100950000895FB01FC5E808308959C5EFC0180810C
:100960000895CF92DF92EF92FF920F931F93CF9350
:10097000DF9380E691E00E94100B0E949F0A6C01B9
:100980000E94A40AD0E0C0E010E000E00F2EF7E7DC
:10099000EF2EF1E0FF2EF02D05C02196C11598E055
:1009A000D907F1F00E949F0AFE01F85E8083208142
:1009B000281799F399279F938F931F922F93DF9373
:1009C000CF93FF92EF920E94FA0A0F5F1F4F8DB7ED
:1009D0009EB708960FB6F8949EBF0FBE8DBFDDCFB1
:1009E000C6010E94A40AD0E0C0E0F12CE12C0F2E39
:1009F000F1EBCF2EF1E0DF2EF02D05C02196C115D1
:100A000098E0D907F1F00E949F0AFE01F85E20816C
:100A10002817A1F399279F938F931F922F93DF930A
:100A2000CF93DF92CF920E94FA0A8FEFE81AF80A6A
:100A30008DB79EB708960FB6F8949EBF0FBE8DBFB8
:100A4000DDCFFF92EF921F930F938FEE91E09F9374
:100A50008F930E94FA0A0F900F900F900F900F90B3
:100A60000F90DF91CF911F910F91FF90EF90DF904A
:100A7000CF90089508950895FC0180810895362F40
:100A8000482F883F08F047EF403408F440E4232F14
:100A9000393F08F028EF203408F420E4803AF8F0D9
:100AA000405A550B64E6649FC001659F900D112468
:100AB00067E570E00E94EA09FB013E39F0F42E5927
:100AC000330B44E6429FC001439F900D11246EE515
:100AD00070E00E94EA099B01BF01C9010895405AD4
:100AE000550B64E6649FC001659F900D112460E67C
:100AF00070E00E94EA09FB01E0CF2E59330B44E677
:100B0000429FC001439F900D11246AE570E00E944E
:100B1000EA099B01E1CF0F931F93CF93DF938B01E2
:100B2000FA0110920010849BFECFA0E0B0E12C915E
:100B300020832C9121832C9130E0EC013983288390
:100B40002C9130E03B832A83618180810E943F05A4
:100B5000F8016083718382839383DF91CF911F912A
:100B60000F9108958D9A80E48FBD89E08EBD1BBCE6
:100B70001ABC0895CF93DF938CE492E00E94100B8F
:100B80000E949F0A0E94A40A80910F019091100177
:100B9000892B79F0D0E0C0E00E949F0AFE01F05F4F
:100BA0008083219680910F0190911001C817D90779
:100BB00098F382E692E00E94100BDF91CF910895A6
:100BC000C49A909A919A8130910531F018F0029769
:100BD00029F00895C49808959098089591980895DB
:100BE00087B3806B87BB81B3876081BB83E090E074
:100BF0000E94E00581E58DB908958FB9779BFECFFE
:100C000008951FB8779BFECF8FB108950F931F9360
:100C1000CF93DF931416150654F48C01EC01040FE6
:100C2000151F89910E94FD05C017D107D1F7DF91EB
:100C3000CF911F910F9108950F931F93CF93DF933F
:100C40001416150654F48C01EC01040F151F0E94B4
:100C500001068993C017D107D1F7DF91CF911F917A
:100C60000F910895880F991F880F991F855E9E4FD9
:100C70000895E0E0F4E11192E11588E1F807D9F771
:100C8000089590E8699FB0011124860F972F911D58
:100C90000895AF92BF92DF92EF92FF920F931F934E
:100CA000CF93DF93A62FF901EE0FFF1FEE0FFF1F6B
:100CB000E55EFE4FE080F1807281483008F05FC051
:100CC00066230CF45FC020E8429FA00111249A0122
:100CD000C82FD92F0F2EFFE3DF2EF02D072F10E0A6
:100CE00091E037C0F801EA0FF11DE138F10508F095
:100CF0004CC08A2F772319F1A62E660FBB0880E21D
:100D0000A81AB108A09EF001A19EF00DB09EF00DB2
:100D10001124EE0DFF1DBA2EB70E649181E08A0FEB
:100D2000A40FB52FB11DBC5E6C93D901A80FB11DE6
:100D3000A150B84E9C933196A82FB812EECFA82F91
:100D400088233CF0A1E0A80FFA01E80FF11DFC5E3A
:100D500010826991662339F080EE860F8F3508F492
:100D6000C1CF6D2DBFCF90E080E0DF91CF911F917B
:100D70000F91FF90EF90DF90BF90AF9008958FEFAD
:100D80009FEFF3CF8FEF9FEFF0CF90E080E0EDCFBC
:100D900008950895892B11F0929A089592980895D4
:100DA000CF93C82F90E080E00E94CA068C2F0E944B
:100DB000FD05CF91089582E090E00E94E00581EA70
:100DC0000E94D00688EC0E94D0068FEA0E94D006CE
:100DD00083E090E00E94E0050895CF93C82F82E25F
:100DE0000E94D0068C2F0E94D00687E00E94D00679
:100DF000CF910895CF93C82F81E20E94D0068C2F07
:100E00000E94D0068FE70E94D006CF910895CF931D
:100E1000C82F81E090E00E94CA068C2F0E94FD0539
:100E2000CF910895CF93DF9382E090E00E94E00598
:100E300080E20E94D00680E00E94D00682E20E94FA
:100E4000D00680E00E94D00687E00E94D006C0E075
:100E5000D4E080E00E9407072197D9F783E090E073
:100E60000E94E005DF91CF910895CF93DF93C82FC3
:100E7000D62F842F0E94ED068D2F0E94FA068C2F0C
:100E80000E94070790E080E0DF91CF9108950E94D3
:100E9000070790E080E00895DF92EF92FF920F93B2
:100EA0001F93CF93DF93EC0182E090E00E94E00576
:100EB00080E20E94D00680E00E94D006C130D105B9
:100EC00099F0229709F441C08091B1029091B20249
:100ED00083E090E00E94E005DF91CF911F910F9198
:100EE000FF90EF90DF90089580E00E94ED0680E093
:100EF0000E94FA06C0E0D4E18E0100581F4F89918C
:100F00000E940707C017D107D1F7C11588E1D8079C
:100F100099F7DACF2196C017D10769F0888181301F
:100F2000C9F7FE01F45080814D2D6C2F6E190E947F
:100F300035071882EFCFD3947E0188E0D81621F2CE
:100F4000870100581F4FE701E9CFD12C0F2EE12C6C
:100F5000F8E1FF2EF02DF4CF0F931F93CF93DF9383
:100F6000FA012081318121153105F1F0213031055F
:100F700079F122E030E040E06DE287E992E00E9402
:100F8000490621E030E042E060E2C8010E944906E3
:100F900021E030E044E060E2CE010E944906DF91AA
:100FA000CF911F910F910895FC0182819381C7E732
:100FB000D2E00FE712E0863F9F4FDCF681E090E041
:100FC000FA0191838083C7E7D2E00FE712E0D1CF27
:100FD000FC0182819381C7E8D2E00FE812E00B9711
:100FE00044F2FA0111821082C7E8D2E00FE812E061
:100FF000C0CFCF93C82F90E080E00E94E00583E04F
:101000000E94FD058C2F0E94FD050E940106C82F3D
:1010100083E090E00E94E0058C2FCF910895CF935C
:10102000DF93D82FC62F90E080E00E94E00582E099
:101030000E94FD058D2F0E94FD058C2F0E94FD054D
:1010400083E090E00E94E005DF91CF910895CF9377
:10105000C82F90E080E00E94E0058C2F80680E94FD
:10106000FD0583E090E00E94E005CF9108951F9375
:10107000CF93DF93182FC62FD42F90E080E00E94EB
:10108000E00585E00E94FD05812F0E94FD058D2F62
:101090000E94FD058C2F0E94FD0583E090E00E94D8
:1010A000E005DF91CF911F91089590E080E00E94CC
:1010B000E00580EA0E94FD0583E090E00E94E005E3
:1010C000089590E080E00E94E00580EC0E94FD051C
:1010D00083E090E00E94E0050895682F6295660F16
:1010E000607E40EE8FE00E94370808950E946108FC
:1010F00084E00E946D088EE00E94F907807E8038AF
:1011000031F08EE00E94F907807E8038D1F761E4EB
:101110008AE20E940F0861EF89E20E940F0865E8E9
:1011200088E20E940F0860E680E60E940F0860E6F1
:1011300080E70E940F0844E064E080E60E943708E0
:101140004FEF60E08CE20E94370863E08BE20E9480
:101150000F0880E00E946D088EE00E94F907807EF3
:1011600029F08EE00E94F907807ED9F78CE992E0A1
:101170000E94100B0895FF920F931F93CF93DF935C
:10118000613039F008F44EC0623009F045C0D1E555
:1011900001C0D1E4F62E8C01FC016081718176954D
:1011A000679576956795769567958D2F0E940F08C0
:1011B000F80160816295660F607E81E08D0F0E946C
:1011C0000F0860E082E08D0F0E940F0860E083E06E
:1011D0008D0F0E940F08F80162816F7084E08D0FFF
:1011E0000E940F08F8018281882379F0C0E0DB5F5C
:1011F000F801EC0FF11D63818D2F8C0F0E940F08F9
:10120000CF5FF8018281C81798F381E001C0880F91
:10121000FA94EAF70E942708DF91CF911F910F916E
:10122000FF900895D1E3B6CF0F931F93CF938C0116
:1012300081E60E94F907C82F82E60E94F9072C2F49
:1012400030E0220F331F220F331F220F331F8295EE
:1012500086958770282BF8013183208385E60E94CC
:10126000F9078F70F8018283882371F0C0E086E669
:101270008C0F0E94F907F801EC0FF11D8383CF5FFB
:10128000F8018281C81798F341E060E08CE20E9487
:101290003708CF911F910F910895BF92CF92DF929F
:1012A000EF92FF920F931F93CF93DF938C018CE209
:1012B0000E94F90780FD0EC081FD4CC090E080E0E7
:1012C000DF91CF911F910F91FF90EF90DF90CF9022
:1012D000BF90089590E080E00E94E00580E90E94C0
:1012E000FD050E940106D82E0E940106B82E0E941C
:1012F00001060E9401060E940106C82EE8012396FD
:1013000078018BE0E80EF11C0E9401068993CE154E
:10131000DF05D1F783E090E00E94E0058D2D90E09D
:10132000880F991F880F991F880F991FB694B6943C
:10133000B694B694B6948B29F801918380838C2D52
:101340008F70828341E060E08CE20E94370881E088
:1013500090E0B6CF90E080E00E94E00584E90E9432
:10136000FD050E940106D82E0E940106B82E0E949B
:1013700001060E9401060E940106C82EE80123967C
:101380007801FBE0EF0EF11C0E9401068993CE1557
:10139000DF05D1F783E090E00E94E0058D2D90E01D
:1013A000880F991F880F991F880F991FB694B694BC
:1013B000B694B694B6948B29F801918380838C2DD2
:1013C0008F70828342E060E08CE20E94370882E006
:1013D00090E076CF97FB072E16F4009407D077FDA8
:1013E00009D00E943F0A07FC05D03EF490958195F4
:1013F0009F4F0895709561957F4F0895A1E21A2E31
:10140000AA1BBB1BFD010DC0AA1FBB1FEE1FFF1FA8
:10141000A217B307E407F50720F0A21BB30BE40BF8
:10142000F50B661F771F881F991F1A9469F760953F
:101430007095809590959B01AC01BD01CF010895F9
:10144000052E97FB1EF400940E94370A57FD07D023
:101450000E94FE0907FC03D04EF40C94370A509505
:101460004095309521953F4F4F4F5F4F0895909590
:101470008095709561957F4F8F4F9F4F0895AA1B60
:10148000BB1B51E107C0AA1FBB1FA617B70710F06F
:10149000A61BB70B881F991F5A95A9F780959095A1
:1014A000BC01CD0108958F929F92AF92BF92CF92CF
:1014B000DF92EF92FF92CF93DF93EC016881798105
:1014C0008A819B81611571058105910521F464E292
:1014D00079ED8BE597E02DE133EF41E050E00E949C
:1014E000200A49015A019B01AC01A7EAB1E40E941C
:1014F000010F6B017C01ACEEB4EFA50194010E94D9
:101500000F0FDC01CB018C0D9D1DAE1DBF1DB7FF64
:1015100003C00197A109B04888839983AA83BB833C
:101520009F77DF91CF91FF90EF90DF90CF90BF90AA
:10153000AF909F908F9008950E94530A089581E183
:1015400091E00E94530A0895B0E0A0E08093110159
:1015500090931201A0931301B093140108950F9377
:101560001F93CF93DF93009759F46115710541F4F0
:10157000F0E0E0E0CF01DF91CF911F910F9108954E
:101580008B01EC016EE070E081E090E00E94150DAF
:10159000FC01892B69F380E883830115110571F043
:1015A0001387028781E883838091CA029091CB02DE
:1015B000892B21F4F093CB02E093CA022097D1F259
:1015C000D187C0878381826083838091CC02909190
:1015D000CD02892B79F6F093CD02E093CC02809175
:1015E000CE029091CF02892B29F6F093CF02E0939F
:1015F000CE02C0CFB0E0A0E0E0E0FBE00C94240F0E
:10160000AE014B5F5F4FFA0161917191AF01809123
:10161000CC029091CD020E943B0BE2E00C94400F73
:101620000F931F93CF93DF93E091CC02F091CD0203
:101630002381EC0110E000E021FD08C00FEF1FEF57
:1016400014C00995892B11F00FEF1FEF899160915C
:10165000CC027091CD02DB011896ED91FC918111C5
:10166000F0CF8AE00995892B49F7C801DF91CF9126
:101670001F910F910895ABE0B0E0E1E4FBE00C9422
:10168000140F7C013B018A01FC01178216828381C1
:1016900081FFC8C1CE0101965C01F7019381F3017E
:1016A00093FD859193FF81913F01882309F453C1F4
:1016B000853239F493FD859193FF81913F01853205
:1016C00029F4B70190E00E94730EE7CF912C212CF2
:1016D000312CFFE1F31538F08B3211F190F48032A8
:1016E00009F1833229F137FC3CC020ED280F2A3064
:1016F00050F536FE20C08AE0989E200D1124922ECF
:1017000006C08D3291F0803371F7689430F8F301A0
:1017100093FD859193FF81913F018111DACF21C023
:10172000689431F8689432F8F2CF689433F8EFCFC8
:10173000689434F8ECCFEAE02E9E200D1124222E7E
:10174000689435F8E4CF8E3229F436FC04C16894ED
:1017500036F8DDCF8C3619F4689437F8D8CF883650
:10176000B1F2982F9F7D95549330E0F08336A1F12C
:101770008337C1F1833509F063C02801F2E04F0ED1
:10178000511CF801C080D180692D70E036FC02C088
:101790006FEF7FEFC6010E94560E4C01689437F838
:1017A00082010AC00C5F1F4FFFE3F98388248394F2
:1017B000912C6501E89437F833FE2DC0522C81142A
:1017C000910471F5552009F468CFB70180E290E0EB
:1017D0000E94730E5A94F6CFF801808189830E5FC0
:1017E0001F4FE4CF2801F2E04F0E511CF801C080DA
:1017F000D180692D70E036FC02C06FEF7FEFC6012B
:101800000E94680E4C018201D5CFB70180E290E0C2
:101810000E94730E2A942814190409F0B0F7CECF51
:10182000F60137FC859137FE81916F01B70190E099
:101830000E94730E51105A94F1E08F1A9108BFCF95
:10184000843619F0893609F077C0F80137FE6BC08D
:1018500060817181828193810C5F1F4FF32DFF7630
:101860003F2E97FF09C090958095709561957F4FA9
:101870008F4F9F4F689437F82AE030E0A5010E940F
:10188000A30EC82ECA188C2C432C36FE0CC0E8942C
:1018900040F8C91440F434FE05C032FC03C0F32DF7
:1018A000FE7E4F2E892C44FE95C0FE01EC0DF11DED
:1018B0008081803309F087C0242D297E422E842D1B
:1018C0008870582E43FC95C040FE8FC09C2C82141B
:1018D00018F42C0C922C981844FE91C0B70180E3A8
:1018E00090E00E94730E42FE09C088E790E041FE3E
:1018F00002C088E590E0B7010E94730EC91408F495
:101900008AC0CA94D12C9FEFC91AD90ACA0CDB1C11
:10191000F60182916F01B70190E00E94730EAC1442
:10192000BD04B1F74FCF60817181072E000C880B89
:10193000990B0E5F1F4F92CFD32CE894D4F82AE076
:1019400030E0853739F1232D297FD22E8F3601F1F2
:1019500048F48835A9F0F701868197812B96E2E15A
:101960000C94300F803749F08837A9F7D4FE02C0B5
:101970006894D2F820E130E00DC06894D4F8F6CF36
:1019800034FE03C0822F8660D82E20E132E002C0F0
:1019900028E030E0F801D7FE0FC0608171818281BC
:1019A00093810C5F1F4FA5010E94A30EC82ECA1879
:1019B0003D2CE89437F867CF6081718190E080E03A
:1019C0000E5F1F4FF0CF42FC02C0839478CF839408
:1019D000839475CF842D867809F471CFF6CFB70143
:1019E00080E290E00E94730E83948214C0F3512C25
:1019F00073CF522C5818821408F46ECFF8CF842D70
:101A0000867809F47BCF8BE241FE80E247FC8DE2D1
:101A1000B70190E071CFB70180E390E00E94730EB0
:101A20009A946CCF8FEF9FEF99CF0F931F93CF9323
:101A3000DF93869F8001879F100D969F100D1124C4
:101A4000C8010E94310DEC01009729F0A80170E057
:101A500060E00E94610ECE01DF91CF911F910F9146
:101A600008950F931F93CF93DF938230910510F465
:101A700082E090E0E091D202F091D30230E020E0E9
:101A8000B0E0A0E0309799F42115310509F44AC07F
:101A9000281B390B24303105D8F58A819B816115CB
:101AA000710589F1FB0193838283FE0111C040819E
:101AB00051810281138148175907E0F048175907EF
:101AC00099F4109761F012960C93129713961C9349
:101AD0003296CF01DF91CF911F910F91089500931E
:101AE000D2021093D302F4CF2115310551F04217E1
:101AF000530738F0A901DB019A01BD01DF01F801AC
:101B0000C1CFEF01F9CF9093D3028093D202CDCF12
:101B1000FE01E20FF31F8193919322503109398323
:101B20002883D7CF2091D0023091D102232B41F4CA
:101B300020911701309118013093D1022093D002E7
:101B400020911501309116012115310541F42DB771
:101B50003EB74091190150911A01241B350BE091B9
:101B6000D002F091D102E217F307A0F42E1B3F0B35
:101B70002817390778F0AC014E5F5F4F24173507FF
:101B800048F04E0F5F1F5093D1024093D0028193D3
:101B900091939FCFF0E0E0E09CCFCF93DF9300974D
:101BA000E9F0FC01329713821282A091D202B09127
:101BB000D302ED0130E020E01097A1F420813181C3
:101BC000820F931F2091D0023091D102281739073C
:101BD00009F061C0F093D102E093D002DF91CF9180
:101BE0000895EA01CE17DF07E8F54A815B819E017F
:101BF00041155105B1F7E901FB83EA8349915991F8
:101C0000C40FD51FEC17FD0761F480819181029606
:101C1000840F951FE90199838883828193819B8337
:101C20008A83F0E0E0E012968D919C9113970097E3
:101C3000B9F52D913C911197CD010296820F931F1A
:101C40002091D0023091D1022817390739F6309708
:101C500051F51092D3021092D202B093D102A09308
:101C6000D002BCCFD383C28340815181840F951FA2
:101C7000C817D90761F44E5F5F4F88819981480F7B
:101C8000591F518340838A819B81938382832115CD
:101C9000310509F0B0CFF093D302E093D2029ECF8A
:101CA000FD01DC01C0CF13821282D7CFFC01059069
:101CB000615070400110D8F7809590958E0F9F1F4E
:101CC0000895DC0101C06D9341505040E0F7089544
:101CD000FC016150704001900110D8F780959095FB
:101CE0008E0F9F1F08950F931F93CF93DF93182F8D
:101CF000092FEB018B8181FD09C01FEF0FEF812FB1
:101D0000902FDF91CF911F910F91089582FF14C002
:101D10002E813F818C819D81281739073CF4E88111
:101D2000F981CF0101969983888310838E819F81E9
:101D300001969F838E83E3CFE885F985812F0995EE
:101D4000892BA1F3DACFFA01AA27283051F12031EB
:101D500081F1E8946F936E7F6E5F7F4F8F4F9F4F3F
:101D6000AF4FB1E03ED0B4E03CD0670F781F891F81
:101D70009A1FA11D680F791F8A1F911DA11D6A0F4F
:101D8000711D811D911DA11D20D009F468943F9102
:101D90002AE0269F11243019305D3193DEF6CF0101
:101DA0000895462F4770405D4193B3E00FD0C9F7C7
:101DB000F6CF462F4F70405D4A3318F0495D31FD34
:101DC0004052419302D0A9F7EACFB4E0A695979587
:101DD000879577956795BA95C9F70097610571055D
:101DE00008959B01AC010A2E0694579547953795A7
:101DF0002795BA95C9F7620F731F841F951FA01D01
:101E000008950E944B0FA59F900DB49F900DA49F25
:101E1000800D911D11240895B7FF0C94010F0E94AD
:101E2000010F821B930B08952F923F924F925F9266
:101E30006F927F928F929F92AF92BF92CF92DF92DA
:101E4000EF92FF920F931F93CF93DF93CDB7DEB73F
:101E5000CA1BDB0B0FB6F894DEBF0FBECDBF0994D3
:101E60002A88398848885F846E847D848C849B842A
:101E7000AA84B984C884DF80EE80FD800C811B8138
:101E8000AA81B981CE0FD11D0FB6F894DEBF0FBE67
:101E9000CDBFED010895A29FB001B39FC001A39FE4
:101EA000700D811D1124911DB29F700D811D112493
:081EB000911D0895F894FFCF85
:101EB800360003000000000000000001001E0000C2
:101EC80004010000000000D402200070000406ECA9
:101ED800010507C703080800180014496E697469EA
:101EE800616C697A696E670D0043414E204D6573D8
:101EF800736167652C2049443A2575204C656E67E7
:101F080074683A257520446174613A25750D0A0094
:101F18005374617274696E67205352414D20746521
:101F280073742E2E2E0D00577269746520706861C7
:101F38007365206572726F723A206578745F72619A
:101F48006D5B2534645D203D202530325820287390
:101F5800686F756C642062652025303258290D0A37
:101F68000052657472696576616C2070686173658A
:101F7800206572726F723A206578745F72616D5B6A
:101F88002534645D203D2025303258202873686F41
:101F9800756C642062652025303258290D0A00537B
:101FA80052414D207465737420636F6D706C657455
:101FB80065642077697468200D0A25346420657289
:101FC800726F727320696E20777269746520706809
:101FD80061736520616E64200D0A25346420657282
:101FE800726F727320696E207265747269657661AA
:101FF8006C2070686173650D0A0D0A005374617274
:1020080074696E672041444320746573742E2E2EC4
:102018000D00414443207465737420636F6D706CC8
:10202800657465640D0A0020202045584954002D28
:102038003E20504C4159002D3E204558495400201F
:102048002020504C4159004D454E5500494E204ED8
:0E2058004F524D414C204D4F4445200D00008D
:00000001FF
