:100000000C9438000C9442000C9442000C94420072
:100010000C9442000C9442000C9442000C94420058
:100020000C9442000C9442000C9442000C94420048
:100030000C9442000C9442000C9442000C94420038
:100040000C9442000C9442000C9442000C94420028
:100050000C9442000C9442000C9442000C94420018
:100060000C9442000C9442000C9442000C94420008
:1000700011241FBECFEFD4E0DEBFCDBF0E944400ED
:100080000C9467000C9400008FE190E00E945800EF
:1000900080E187BB81E60E945F0082E60E945F00EC
:1000A00083E60E945F00F6CF8FB780688FBF089508
:1000B00090BD89B988E18AB98EE880BD08955D9BBD
:1000C000FECF8CB908955F9BFECF8CB10895F89454
:0200D000FFCF60
:00000001FF
