:100000000C9438000C9455000C9455000C94550039
:100010000C9455000C9455000C9455000C9455000C
:100020000C9455000C9455000C9455000C945500FC
:100030000C9455000C9455000C9455000C945500EC
:100040000C9455000C9455000C9455000C945500DC
:100050000C9499000C9455000C9455000C94550088
:100060000C9455000C9455000C9455000C945500BC
:1000700011241FBECFEFD4E0DEBFCDBF12E0A0E061
:10008000B1E0E6E2FDE002C005900D92AE30B107AE
:10009000D9F722E0AEE0B2E001C01D92AA31B2076A
:1000A000E1F70E9457000C9491060C9400008FE138
:1000B00090E00E9488000E94B1000E94C000FDCF25
:1000C0008AE091E00E940602399A8FEF8ABB30E005
:1000D00020E007C080832F5F3F4F211588E038075D
:1000E00051F0F901F85EC901907899239CF70197C6
:1000F0009F6F0196EFCF39980895159BFECF83B976
:1001000090E080E00895179BFECF83B190E00895C2
:100110009CBF80B988E181B98EE88CBF63E870E04C
:100120008DE790E00E94A5010895F8940F9A7894C5
:1001300008951F920F920FB60F9211248F939F93E1
:1001400083B1813639F09F918F910F900FBE0F9040
:100150001F90189581E090E090930F0280930E021B
:10016000F2CF85B7806885BF80B7886080BF08956B
:10017000FB01FC5E808308959C5EFC0180810895F4
:10018000CF92DF92EF92FF920F931F93CF93DF9363
:1001900081E291E00E9406020E9495016C010E949A
:1001A0009A01D0E0C0E010E000E00F2EF8E3EF2E5F
:1001B000F1E0FF2EF02D05C02196C11598E0D9077A
:1001C000F1F00E949501FE01F85E808320812817DE
:1001D00099F399279F938F931F922F93DF93CF9338
:1001E000FF92EF920E94F0010F5F1F4F8DB79EB7F5
:1001F00008960FB6F8949EBF0FBE8DBFDDCFC60127
:100200000E949A01D0E0C0E0F12CE12C0F2EF2E721
:10021000CF2EF1E0DF2EF02D05C02196C11598E01C
:10022000D907F1F00E949501FE01F85E20812817A0
:10023000A1F399279F938F931F922F93DF93CF93CF
:10024000DF92CF920E94F0018FEFE81AF80A8DB783
:100250009EB708960FB6F8949EBF0FBE8DBFDDCF38
:10026000FF92EF921F930F9380EB91E09F938F93F8
:100270000E94F0010F900F900F900F900F900F9031
:10028000DF91CF911F910F91FF90EF90DF90CF9072
:1002900008958F929F92AF92BF92CF92DF92EF928A
:1002A000FF92CF93DF93EC01688179818A819B81F2
:1002B000611571058105910521F464E279ED8BE505
:1002C00097E02DE133EF41E050E00E94F70549014E
:1002D0005A019B01AC01A7EAB1E40E9416066B012A
:1002E0007C01ACEEB4EFA50194010E942406DC0170
:1002F000CB018C0D9D1DAE1DBF1DB7FF03C0019727
:10030000A109B04888839983AA83BB839F77DF9133
:10031000CF91FF90EF90DF90CF90BF90AF909F90E4
:100320008F9008950E944901089580E091E00E9415
:1003300049010895B0E0A0E080930001909301018D
:10034000A0930201B093030108950F931F93CF93DD
:10035000DF93009759F46115710541F4F0E0E0E096
:10036000CF01DF91CF911F910F9108958B01EC0187
:100370006EE070E081E090E00E940B04FC01892BAC
:1003800069F380E883830115110571F013870287F3
:1003900081E883838091100290911102892B21F4CE
:1003A000F0931102E09310022097D1F2D187C08719
:1003B0008381826083838091120290911302892B42
:1003C00079F6F0931302E093120280911402909157
:1003D0001502892B29F6F0931502E0931402C0CF81
:1003E000B0E0A0E0E6EFF1E00C943906AE014B5F1F
:1003F0005F4FFA0161917191AF018091120290916A
:1004000013020E943102E2E00C9455060F931F93F1
:10041000CF93DF93E0911202F09113022381EC015C
:1004200010E000E021FD08C00FEF1FEF14C0099598
:10043000892B11F00FEF1FEF8991609112027091DB
:100440001302DB011896ED91FC918111F0CF8AE047
:100450000995892B49F7C801DF91CF911F910F9121
:100460000895ABE0B0E0E7E3F2E00C9429067C01EC
:100470003B018A01FC0117821682838181FFC8C17A
:10048000CE0101965C01F7019381F30193FD859103
:1004900093FF81913F01882309F453C1853239F4D8
:1004A00093FD859193FF81913F01853229F4B70136
:1004B00090E00E946905E7CF912C212C312CFFE1BF
:1004C000F31538F08B3211F190F4803209F1833258
:1004D00029F137FC3CC020ED280F2A3050F536FEBC
:1004E00020C08AE0989E200D1124922E06C08D32E5
:1004F00091F0803371F7689430F8F30193FD8591A2
:1005000093FF81913F018111DACF21C0689431F8C6
:10051000689432F8F2CF689433F8EFCF689434F8E7
:10052000ECCFEAE02E9E200D1124222E689435F89F
:10053000E4CF8E3229F436FC04C1689436F8DDCF5E
:100540008C3619F4689437F8D8CF8836B1F2982FE2
:100550009F7D95549330E0F08336A1F18337C1F14C
:10056000833509F063C02801F2E04F0E511CF801F9
:10057000C080D180692D70E036FC02C06FEF7FEF44
:10058000C6010E944C054C01689437F882010AC0EC
:100590000C5F1F4FFFE3F98388248394912C65013E
:1005A000E89437F833FE2DC0522C8114910471F574
:1005B000552009F468CFB70180E290E00E946905F8
:1005C0005A94F6CFF801808189830E5F1F4FE4CFE4
:1005D0002801F2E04F0E511CF801C080D180692D36
:1005E00070E036FC02C06FEF7FEFC6010E945E052F
:1005F0004C018201D5CFB70180E290E00E946905ED
:100600002A942814190409F0B0F7CECFF60137FC6C
:10061000859137FE81916F01B70190E00E946905D5
:1006200051105A94F1E08F1A9108BFCF843619F017
:10063000893609F077C0F80137FE6BC0608171819F
:10064000828193810C5F1F4FF32DFF763F2E97FF22
:1006500009C090958095709561957F4F8F4F9F4F02
:10066000689437F82AE030E0A5010E949905C82E69
:10067000CA188C2C432C36FE0CC0E89440F8C914E0
:1006800040F434FE05C032FC03C0F32DFE7E4F2E35
:10069000892C44FE95C0FE01EC0DF11D8081803354
:1006A00009F087C0242D297E422E842D8870582E73
:1006B00043FC95C040FE8FC09C2C821418F42C0C77
:1006C000922C981844FE91C0B70180E390E00E94FC
:1006D000690542FE09C088E790E041FE02C088E556
:1006E00090E0B7010E946905C91408F48AC0CA9451
:1006F000D12C9FEFC91AD90ACA0CDB1CF6018291D2
:100700006F01B70190E00E946905AC14BD04B1F718
:100710004FCF60817181072E000C880B990B0E5F03
:100720001F4F92CFD32CE894D4F82AE030E08537DD
:1007300039F1232D297FD22E8F3601F148F48835E7
:10074000A9F0F701868197812B96E2E10C9445068A
:10075000803749F08837A9F7D4FE02C06894D2F8F0
:1007600020E130E00DC06894D4F8F6CF34FE03C029
:10077000822F8660D82E20E132E002C028E030E0EF
:10078000F801D7FE0FC060817181828193810C5F77
:100790001F4FA5010E949905C82ECA183D2CE89448
:1007A00037F867CF6081718190E080E00E5F1F4F66
:1007B000F0CF42FC02C0839478CF8394839475CFAA
:1007C000842D867809F471CFF6CFB70180E290E0EE
:1007D0000E94690583948214C0F3512C73CF522C6C
:1007E0005818821408F46ECFF8CF842D867809F457
:1007F0007BCF8BE241FE80E247FC8DE2B70190E0C7
:1008000071CFB70180E390E00E9469059A946CCFA4
:100810008FEF9FEF99CF0F931F93CF93DF93869F17
:100820008001879F100D969F100D1124C8010E9412
:100830002704EC01009729F0A80170E060E00E9415
:100840005705CE01DF91CF911F910F9108950F931E
:100850001F93CF93DF938230910510F482E090E0F4
:10086000E0911802F091190230E020E0B0E0A0E041
:10087000309799F42115310509F44AC0281B390B2A
:1008800024303105D8F58A819B816115710589F184
:10089000FB0193838283FE0111C04081518102815B
:1008A000138148175907E0F04817590799F4109732
:1008B00061F012960C93129713961C933296CF0107
:1008C000DF91CF911F910F9108950093180210931B
:1008D0001902F4CF2115310551F04217530738F0B2
:1008E000A901DB019A01BD01DF01F801C1CFEF01D0
:1008F000F9CF9093190280931802CDCFFE01E20F39
:10090000F31F819391932250310939832883D7CFE4
:100910002091160230911702232B41F420910601F9
:1009200030910701309317022093160220910401A1
:10093000309105012115310541F42DB73EB74091A5
:10094000080150910901241B350BE0911602F0912A
:100950001702E217F307A0F42E1B3F0B28173907E5
:1009600078F0AC014E5F5F4F2417350748F04E0F0B
:100970005F1F5093170240931602819391939FCF6C
:10098000F0E0E0E09CCFCF93DF930097E9F0FC012B
:10099000329713821282A0911802B0911902ED01D0
:1009A00030E020E01097A1F420813181820F931F65
:1009B00020911602309117022817390709F061C0FB
:1009C000F0931702E0931602DF91CF910895EA01A8
:1009D000CE17DF07E8F54A815B819E01411551057D
:1009E000B1F7E901FB83EA8349915991C40FD51FFF
:1009F000EC17FD0761F4808191810296840F951FA9
:100A0000E90199838883828193819B838A83F0E0C3
:100A1000E0E012968D919C9113970097B9F52D9176
:100A20003C911197CD010296820F931F20911602DF
:100A3000309117022817390739F6309751F510927F
:100A4000190210921802B0931702A0931602BCCF9D
:100A5000D383C28340815181840F951FC817D90762
:100A600061F44E5F5F4F88819981480F591F518310
:100A700040838A819B81938382832115310509F00C
:100A8000B0CFF0931902E09318029ECFFD01DC0174
:100A9000C0CF13821282D7CFFC0105906150704005
:100AA0000110D8F7809590958E0F9F1F0895DC0157
:100AB00001C06D9341505040E0F70895FC01615032
:100AC000704001900110D8F7809590958E0F9F1F70
:100AD00008950F931F93CF93DF93182F092FEB01E6
:100AE0008B8181FD09C01FEF0FEF812F902FDF91C8
:100AF000CF911F910F91089582FF14C02E813F81E5
:100B00008C819D81281739073CF4E881F981CF0158
:100B100001969983888310838E819F8101969F839C
:100B20008E83E3CFE885F985812F0995892BA1F381
:100B3000DACFFA01AA27283051F1203181F1E89467
:100B40006F936E7F6E5F7F4F8F4F9F4FAF4FB1E0C0
:100B50003ED0B4E03CD0670F781F891F9A1FA11DBB
:100B6000680F791F8A1F911DA11D6A0F711D811DBC
:100B7000911DA11D20D009F468943F912AE0269F81
:100B800011243019305D3193DEF6CF010895462FE0
:100B90004770405D4193B3E00FD0C9F7F6CF462FC1
:100BA0004F70405D4A3318F0495D31FD405241932A
:100BB00002D0A9F7EACFB4E0A695979587957795E7
:100BC0006795BA95C9F700976105710508959B016E
:100BD000AC010A2E06945795479537952795BA95F7
:100BE000C9F7620F731F841F951FA01D0895052E5E
:100BF00097FB1EF400940E940E0657FD07D00E943A
:100C0000600607FC03D04EF40C940E0650954095F8
:100C1000309521953F4F4F4F5F4F089590958095A8
:100C2000709561957F4F8F4F9F4F08950E94820668
:100C3000A59F900DB49F900DA49F800D911D112430
:100C40000895B7FF0C9416060E941606821B930B9C
:100C500008952F923F924F925F926F927F928F9260
:100C60009F92AF92BF92CF92DF92EF92FF920F933B
:100C70001F93CF93DF93CDB7DEB7CA1BDB0B0FB645
:100C8000F894DEBF0FBECDBF09942A883988488802
:100C90005F846E847D848C849B84AA84B984C88498
:100CA000DF80EE80FD800C811B81AA81B981CE0F8F
:100CB000D11D0FB6F894DEBF0FBECDBFED01089574
:100CC000A1E21A2EAA1BBB1BFD010DC0AA1FBB1F50
:100CD000EE1FFF1FA217B307E407F50720F0A21BC2
:100CE000B30BE40BF50B661F771F881F991F1A942F
:100CF00069F760957095809590959B01AC01BD0159
:100D0000CF010895A29FB001B39FC001A39F700DB2
:100D1000811D1124911DB29F700D811D1124911D03
:060D20000895F894FFCFD6
:100D26000100000000001A0220004C617463682074
:100D360074657374207374617274696E672E2E2ED7
:100D4600005374617274696E67205352414D20746A
:100D56006573742E2E2E0D005772697465207068A7
:100D6600617365206572726F723A206578745F727E
:100D7600616D5B2534645D203D2025303258202886
:100D860073686F756C642062652025303258290DB2
:100D96000A0052657472696576616C2070686173C9
:100DA60065206572726F723A206578745F72616D44
:100DB6005B2534645D203D20253032582028736839
:100DC6006F756C642062652025303258290D0A0043
:100DD6005352414D207465737420636F6D706C655A
:100DE6007465642077697468200D0A25346420656B
:100DF60072726F727320696E2077726974652070E3
:100E06006861736520616E64200D0A25346420656F
:100E160072726F727320696E20726574726965767C
:0E0E2600616C2070686173650D0A0D0A000092
:00000001FF
