:100000000C9438000C9442000C9442000C94420072
:100010000C9442000C9442000C9442000C94420058
:100020000C9442000C9442000C9442000C94420048
:100030000C9442000C9442000C9442000C94420038
:100040000C9442000C9442000C9442000C94420028
:100050000C9442000C9442000C9442000C94420018
:100060000C9442000C9442000C9442000C94420008
:1000700011241FBECFEFD4E0DEBFCDBF0E944400ED
:100080000C9461000C9400008FE190E00E945200FB
:1000900080E187BB81E60E945900FCCF8FB7806862
:1000A0008FBF089590BD89B988E18AB98EE880BD77
:1000B00008955D9BFECF8CB908955F9BFECF8CB1F8
:0600C0000895F894FFCF43
:00000001FF
