:100000000C9438000C9455000C9455000C94550039
:100010000C9455000C9455000C9455000C9455000C
:100020000C9455000C9455000C9455000C945500FC
:100030000C9455000C9455000C9455000C945500EC
:100040000C9455000C9455000C9455000C945500DC
:100050000C94FD000C9455000C9455000C94550024
:100060000C9455000C9455000C9455000C945500BC
:1000700011241FBECFEFD4E0DEBFCDBF12E0A0E061
:10008000B1E0ECE4F1E102C005900D92A238B107B5
:10009000D9F722E0A2E8B2E001C01D92AE38B20763
:1000A000E1F70E9457000C94A4080C940000CF9331
:1000B000DF93CDB7DEB728970FB6F894DEBF0FBE3B
:1000C000CDBF8FE190E00E94EC000E9415010E94DC
:1000D0001E020E945C020E94C0020E94DF020CE02D
:1000E00011E081E090E00E944C0285E00E941A033A
:1000F0008DE08A95F1F7000085E00E94270381E0FA
:100100000E94270383E090E00E944C0281E090E08F
:100110000E944C0286E00E941A0394E19A95F1F73E
:1001200081E00E94270384E18A95F1F785E00E942F
:10013000270383E090E00E944C02BE016F5F7F4F77
:10014000CE0105960E94FE0187EA91E60197F1F73C
:1001500000C0000088858F938F818F938E818F934D
:100160008D818F938C818F938B818F938A818F93D5
:1001700089818F931F930F930E9403040FB6F89405
:10018000DEBF0FBECDBFADCF83E591E00E94190465
:10019000399A8FEF8ABB30E020E007C080832F5F61
:1001A0003F4F211588E0380751F0F901F85EC90189
:1001B000907899239CF701979F6F0196EFCF39981C
:1001C0000895159BFECF83B990E080E00895179BBA
:1001D000FECF83B190E008959CBF80B988E181B9DA
:1001E0008EE88CBF67EE70E081EE90E00E94B8036D
:1001F0000895F8940F9A789408951F920F920FB66D
:100200000F9211248F939F9383B1813639F09F9180
:100210008F910F900FBE0F901F90189581E090E086
:100220009093830280938202F2CF85B7806885BF66
:1002300080B7806280BF0895FB01FC5E80830895D3
:100240009C5EFC0180810895CF92DF92EF92FF9235
:100250000F931F93CF93DF938AE691E00E941904D6
:100260000E94A8036C010E94AD03D0E0C0E010E042
:1002700000E00F2EF1E8EF2EF1E0FF2EF02D05C08B
:100280002196C11598E0D907F1F00E94A803FE015C
:10029000F85E80832081281799F399279F938F9385
:1002A0001F922F93DF93CF93FF92EF920E9403044C
:1002B0000F5F1F4F8DB79EB708960FB6F8949EBF7D
:1002C0000FBE8DBFDDCFC6010E94AD03D0E0C0E000
:1002D000F12CE12C0F2EFBEBCF2EF1E0DF2EF02DD9
:1002E00005C02196C11598E0D907F1F00E94A80336
:1002F000FE01F85E20812817A1F399279F938F9321
:100300001F922F93DF93CF93DF92CF920E9403042B
:100310008FEFE81AF80A8DB79EB708960FB6F894D3
:100320009EBF0FBE8DBFDDCFFF92EF921F930F9345
:1003300089EF91E09F938F930E9403040F900F9099
:100340000F900F900F900F90DF91CF911F910F9111
:10035000FF90EF90DF90CF90089508950895FC01ED
:1003600080810895362F482F883F08F047EF4034AA
:1003700008F440E4232F393F08F028EF203408F434
:1003800020E4803AF8F0405A550B64E6649FC001BF
:10039000659F900D112467E570E00E943403FB0116
:1003A0003E39F0F42E59330B44E6429FC001439F7F
:1003B000900D11246EE570E00E9434039B01BF0193
:1003C000C9010895405A550B64E6649FC001659FBA
:1003D000900D112460E670E00E943403FB01E0CF31
:1003E0002E59330B44E6429FC001439F900D1124C8
:1003F0006AE570E00E9434039B01E1CFCF93DF9365
:10040000DC01EB0110920010849BFECFE0E0F0E1F4
:1004100080816081208130E011963C932E93208171
:1004200030E013963C932E9312970E94B20168839A
:1004300079838A839B83DF91CF9108958D9A80E49D
:100440008FBD89E08EBD1BBC1ABC0895CF93DF938E
:1004500086E592E00E9419040E94A8030E94AD0361
:100460008091000190910101892B79F0D0E0C0E0EA
:100470000E94A803FE01F05F808321968091000115
:1004800090910101C817D90798F38CE692E00E9479
:100490001904DF91CF910895C49A909A919A81306E
:1004A000910531F018F0029729F00895C498089545
:1004B000909808959198089587B3806A87BB81B317
:1004C000876081BB83E090E00E944C0281E58DB99A
:1004D00008958FB9779BFECF0895779BFECF8FB19C
:1004E0000895EF92FF920F931F93CF93DF9314160B
:1004F000150664F47B018C01EC01040F151FB70194
:1005000089910E946902C017D107C9F7DF91CF9185
:100510001F910F91FF90EF900895EF92FF920F932C
:100520001F93CF93DF931416150664F47B018C019F
:10053000EC01040F151FC7010E946D028993C017BB
:10054000D107C9F7DF91CF911F910F91FF90EF90E5
:1005500008950895089508950895892B11F0929AA9
:10056000089592980895CF93C82F90E080E00E945C
:10057000AD0262E070E08C2F0E946902CF91089575
:1005800082E090E00E944C0281EA0E94B30288EC73
:100590000E94B3028FEA0E94B30283E090E00E94BF
:1005A0004C020895CF93C82F81E090E00E94AD02E5
:1005B00062E070E08C2F0E946902CF910895CF9382
:1005C000DF9382E090E00E944C0280E20E94B3023E
:1005D00080E00E94B30282E20E94B30280EA0E949D
:1005E000B30287E00E94B30287E20E94D20287E64C
:1005F0000E94D20285E40E94D20285E40E94D202C7
:100600008DE70E94D20289E30E94D20280E00E941C
:10061000D20280E00E94D202C8EFD3E080E00E94C4
:10062000D2022197D9F783E090E00E944C02DF913B
:10063000CF910895CF93C82F90E080E00E94AD0243
:1006400061E070E08C2F0E946902CF910895CF93F2
:10065000C82F81E090E00E94AD0261E070E08C2F35
:100660000E946902CF91089597FB072E16F400941B
:1006700007D077FD09D00E94480307FC05D03EF45F
:10068000909581959F4F0895709561957F4F08953E
:10069000AA1BBB1B51E107C0AA1FBB1FA617B707A8
:1006A00010F0A61BB70B881F991F5A95A9F78095C4
:1006B0009095BC01CD0108958F929F92AF92BF9209
:1006C000CF92DF92EF92FF92CF93DF93EC0168819C
:1006D00079818A819B81611571058105910521F4DC
:1006E00064E279ED8BE597E02DE133EF41E050E0F6
:1006F0000E940A0849015A019B01AC01A7EAB1E432
:100700000E9429086B017C01ACEEB4EFA5019401B5
:100710000E943708DC01CB018C0D9D1DAE1DBF1D55
:10072000B7FF03C00197A109B04888839983AA83C2
:10073000BB839F77DF91CF91FF90EF90DF90CF90B9
:10074000BF90AF909F908F9008950E945C03089592
:1007500082E091E00E945C030895B0E0A0E0809305
:10076000020190930301A0930401B0930501089541
:100770000F931F93CF93DF93009759F46115710581
:1007800041F4F0E0E0E0CF01DF91CF911F910F91B4
:1007900008958B01EC016EE070E081E090E00E9432
:1007A0001E06FC01892B69F380E88383011511057E
:1007B00071F01387028781E883838091840290918E
:1007C0008502892B21F4F0938502E093840220971F
:1007D000D1F2D187C0878381826083838091860232
:1007E00090918702892B79F6F0938702E093860235
:1007F0008091880290918902892B29F6F0938902D1
:10080000E0938802C0CFB0E0A0E0E9E0F4E00C940F
:100810004C08AE014B5F5F4FFA0161917191AF01DE
:1008200080918602909187020E944404E2E00C9439
:1008300068080F931F93CF93DF93E0918602F091A6
:1008400087022381EC0110E000E021FD08C00FEFDA
:100850001FEF14C00995892B11F00FEF1FEF89913D
:100860006091860270918702DB011896ED91FC91F0
:100870008111F0CF8AE00995892B49F7C801DF91F2
:10088000CF911F910F910895ABE0B0E0EAE4F4E05E
:100890000C943C087C013B018A01FC011782168202
:1008A000838181FFC8C1CE0101965C01F70193816C
:1008B000F30193FD859193FF81913F01882309F412
:1008C00053C1853239F493FD859193FF81913F01A6
:1008D000853229F4B70190E00E947C07E7CF912C84
:1008E000212C312CFFE1F31538F08B3211F190F40B
:1008F000803209F1833229F137FC3CC020ED280F0A
:100900002A3050F536FE20C08AE0989E200D112432
:10091000922E06C08D3291F0803371F7689430F8D2
:10092000F30193FD859193FF81913F018111DACF0E
:1009300021C0689431F8689432F8F2CF689433F8A3
:10094000EFCF689434F8ECCFEAE02E9E200D11240E
:10095000222E689435F8E4CF8E3229F436FC04C197
:10096000689436F8DDCF8C3619F4689437F8D8CF10
:100970008836B1F2982F9F7D95549330E0F08336FE
:10098000A1F18337C1F1833509F063C02801F2E09A
:100990004F0E511CF801C080D180692D70E036FCEB
:1009A00002C06FEF7FEFC6010E945F074C016894A1
:1009B00037F882010AC00C5F1F4FFFE3F9838824D8
:1009C0008394912C6501E89437F833FE2DC0522CA6
:1009D0008114910471F5552009F468CFB70180E2C4
:1009E00090E00E947C075A94F6CFF80180818983B9
:1009F0000E5F1F4FE4CF2801F2E04F0E511CF801AB
:100A0000C080D180692D70E036FC02C06FEF7FEFAF
:100A1000C6010E9471074C018201D5CFB70180E267
:100A200090E00E947C072A942814190409F0B0F77A
:100A3000CECFF60137FC859137FE81916F01B7016A
:100A400090E00E947C0751105A94F1E08F1A9108AF
:100A5000BFCF843619F0893609F077C0F80137FE28
:100A60006BC060817181828193810C5F1F4FF32D78
:100A7000FF763F2E97FF09C0909580957095619500
:100A80007F4F8F4F9F4F689437F82AE030E0A501E1
:100A90000E94AC07C82ECA188C2C432C36FE0CC002
:100AA000E89440F8C91440F434FE05C032FC03C099
:100AB000F32DFE7E4F2E892C44FE95C0FE01EC0DD9
:100AC000F11D8081803309F087C0242D297E422EBC
:100AD000842D8870582E43FC95C040FE8FC09C2CFE
:100AE000821418F42C0C922C981844FE91C0B70173
:100AF00080E390E00E947C0742FE09C088E790E016
:100B000041FE02C088E590E0B7010E947C07C9144D
:100B100008F48AC0CA94D12C9FEFC91AD90ACA0C0A
:100B2000DB1CF60182916F01B70190E00E947C0707
:100B3000AC14BD04B1F74FCF60817181072E000C5A
:100B4000880B990B0E5F1F4F92CFD32CE894D4F8EB
:100B50002AE030E0853739F1232D297FD22E8F36D8
:100B600001F148F48835A9F0F701868197812B9629
:100B7000E2E10C945808803749F08837A9F7D4FE91
:100B800002C06894D2F820E130E00DC06894D4F837
:100B9000F6CF34FE03C0822F8660D82E20E132E0EB
:100BA00002C028E030E0F801D7FE0FC060817181FB
:100BB000828193810C5F1F4FA5010E94AC07C82E54
:100BC000CA183D2CE89437F867CF6081718190E0B6
:100BD00080E00E5F1F4FF0CF42FC02C0839478CFBD
:100BE0008394839475CF842D867809F471CFF6CFE2
:100BF000B70180E290E00E947C0783948214C0F3E6
:100C0000512C73CF522C5818821408F46ECFF8CFA1
:100C1000842D867809F47BCF8BE241FE80E247FC8D
:100C20008DE2B70190E071CFB70180E390E00E94C0
:100C30007C079A946CCF8FEF9FEF99CF0F931F9300
:100C4000CF93DF93869F8001879F100D969F100D95
:100C50001124C8010E943A06EC01009729F0A8016E
:100C600070E060E00E946A07CE01DF91CF911F9192
:100C70000F9108950F931F93CF93DF9382309105C7
:100C800010F482E090E0E0918C02F0918D0230E06F
:100C900020E0B0E0A0E0309799F42115310509F487
:100CA0004AC0281B390B24303105D8F58A819B8135
:100CB0006115710589F1FB0193838283FE0111C0E7
:100CC000408151810281138148175907E0F048178C
:100CD000590799F4109761F012960C931297139696
:100CE0001C933296CF01DF91CF911F910F91089500
:100CF00000938C0210938D02F4CF2115310551F031
:100D00004217530738F0A901DB019A01BD01DF0149
:100D1000F801C1CFEF01F9CF90938D0280938C023F
:100D2000CDCFFE01E20FF31F819391932250310941
:100D300039832883D7CF20918A0230918B02232BCD
:100D400041F4209108013091090130938B022093E6
:100D50008A0220910601309107012115310541F4E5
:100D60002DB73EB740910A0150910B01241B350B62
:100D7000E0918A02F0918B02E217F307A0F42E1B98
:100D80003F0B2817390778F0AC014E5F5F4F2417EF
:100D9000350748F04E0F5F1F50938B0240938A0235
:100DA000819391939FCFF0E0E0E09CCFCF93DF93CE
:100DB0000097E9F0FC01329713821282A0918C0215
:100DC000B0918D02ED0130E020E01097A1F4208178
:100DD0003181820F931F20918A0230918B02281754
:100DE000390709F061C0F0938B02E0938A02DF912A
:100DF000CF910895EA01CE17DF07E8F54A815B81BC
:100E00009E0141155105B1F7E901FB83EA83499140
:100E10005991C40FD51FEC17FD0761F480819181B2
:100E20000296840F951FE9019983888382819381BB
:100E30009B838A83F0E0E0E012968D919C9113975A
:100E40000097B9F52D913C911197CD010296820F33
:100E5000931F20918A0230918B022817390739F6A7
:100E6000309751F510928D0210928C02B0938B0244
:100E7000A0938A02BCCFD383C28340815181840F67
:100E8000951FC817D90761F44E5F5F4F888199811C
:100E9000480F591F518340838A819B8193838283AA
:100EA0002115310509F0B0CFF0938D02E0938C024B
:100EB0009ECFFD01DC01C0CF13821282D7CFFC018F
:100EC0000590615070400110D8F7809590958E0F75
:100ED0009F1F0895DC0101C06D9341505040E0F721
:100EE0000895FC016150704001900110D8F7809581
:100EF00090958E0F9F1F08950F931F93CF93DF93AD
:100F0000182F092FEB018B8181FD09C01FEF0FEF17
:100F1000812F902FDF91CF911F910F91089582FF24
:100F200014C02E813F818C819D81281739073CF4A4
:100F3000E881F981CF0101969983888310838E819E
:100F40009F8101969F838E83E3CFE885F985812F6A
:100F50000995892BA1F3DACFFA01AA27283051F19C
:100F6000203181F1E8946F936E7F6E5F7F4F8F4FDA
:100F70009F4FAF4FB1E03ED0B4E03CD0670F781F39
:100F8000891F9A1FA11D680F791F8A1F911DA11D1E
:100F90006A0F711D811D911DA11D20D009F4689457
:100FA0003F912AE0269F11243019305D3193DEF6FF
:100FB000CF010895462F4770405D4193B3E00FD0B5
:100FC000C9F7F6CF462F4F70405D4A3318F0495DA0
:100FD00031FD4052419302D0A9F7EACFB4E0A69583
:100FE0009795879577956795BA95C9F700976105A5
:100FF000710508959B01AC010A2E069457954795FB
:1010000037952795BA95C9F7620F731F841F951FEF
:10101000A01D0895052E97FB1EF400940E94210840
:1010200057FD07D00E94730807FC03D04EF40C94C0
:10103000210850954095309521953F4F4F4F5F4F78
:10104000089590958095709561957F4F8F4F9F4F34
:1010500008950E949508A59F900DB49F900DA49FA0
:10106000800D911D11240895B7FF0C9429080E944A
:101070002908821B930B08952F923F924F925F9203
:101080006F927F928F929F92AF92BF92CF92DF9298
:10109000EF92FF920F931F93CF93DF93CDB7DEB7FD
:1010A000CA1BDB0B0FB6F894DEBF0FBECDBF099491
:1010B0002A88398848885F846E847D848C849B84E8
:1010C000AA84B984C884DF80EE80FD800C811B81F6
:1010D000AA81B981CE0FD11D0FB6F894DEBF0FBE25
:1010E000CDBFED010895A1E21A2EAA1BBB1BFD0185
:1010F0000DC0AA1FBB1FEE1FFF1FA217B307E407F7
:10110000F50720F0A21BB30BE40BF50B661F771F4E
:10111000881F991F1A9469F760957095809590952E
:101120009B01AC01BD01CF010895A29FB001B39F07
:10113000C001A39F700D811D1124911DB29F700DE0
:0C114000811D1124911D0895F894FFCF2B
:10114C0000040100000000008E0220004A6F797339
:10115C007469636B20706F736974696F6E3A2020C9
:10116C00583A253364092020593A2533642020202D
:10117C00536C6964657220706F736974696F6E3A31
:10118C00202020583A253364092020593A2533640D
:10119C000D0A004C61746368207465737420737459
:1011AC00617274696E672E2E2E00537461727469AD
:1011BC006E67205352414D20746573742E2E2E0D84
:1011CC00005772697465207068617365206572726E
:1011DC006F723A206578745F72616D5B2534645D63
:1011EC00203D2025303258202873686F756C6420A0
:1011FC0062652025303258290D0A005265747269D7
:10120C006576616C207068617365206572726F72AF
:10121C003A206578745F72616D5B2534645D203DA6
:10122C002025303258202873686F756C64206265F5
:10123C002025303258290D0A005352414D20746537
:10124C00737420636F6D706C65746564207769745A
:10125C0068200D0A253464206572726F72732069E0
:10126C006E20777269746520706861736520616E99
:10127C0064200D0A253464206572726F72732069C4
:10128C006E2072657472696576616C20706861732A
:10129C00650D0A0D0A005374617274696E67204102
:1012AC00444320746573742E2E2E0D00414443204C
:1012BC007465737420636F6D706C657465640D0A6E
:0212CC00000020
:00000001FF
