:100000000C9460030C947D030C947D030C947D038D
:100010000C947D030C947D030C947D030C947D0360
:100020000C947D030C947D030C947D030C947D0350
:100030000C947D030C947D030C947D030C947D0340
:100040000C947D030C947D030C947D030C947D0330
:100050000C94FB030C947D030C947D030C947D03A2
:100060000C947D030C947D030C947D030C947D0310
:1000700000000000005C00000C000C007C287C28C4
:1000800058DC68002410480028542840000C000068
:10009000007884008478000054385400107C1000EC
:1000A00080400000101010000040000060100C00A4
:1000B00038543800487C40004864580044542C00B0
:1000C0001C107C005C5424003854240064140C0080
:1000D00068542C0048543800004800008048000054
:1000E0001028440028282800442810000454080040
:1000F00038445C00781478007C5428003844280088
:100100007C4438007C5444007C140400384474005F
:100110007C107C00447C440020403C007C106C003F
:100120007C4040007C187C0078103C00384438004B
:100130007C1408003844B8007C146800485424003B
:10014000047C04007C407C003C603C007C307C00F3
:100150006C106C000C700C0064544C00007C44006B
:100160000C106000447C00000804080080808000BF
:1001700000040800304878007C48300030484800CF
:1001800030487C00306850001078140090A8780047
:100190007C08700050744000808074007C106800FF
:1001A000447C4000781078007808700030483000B7
:1001B000F82810003048F80078100800505828003F
:1001C000083C4800384078003840380078207800F3
:1001D0004830480098A0780048685800107884009B
:1001E000007C00008478100008040804000000006F
:1001F0000000005F00000007000700147F147F1458
:10020000242A7F2A1223130864623649552250009B
:1002100005030000001C2241000041221C00082AA6
:100220001C2A0808083E080800503000000808088A
:100230000808006060000020100804023E51494593
:100240003E00427F400042615149462141454B31C9
:100250001814127F1027454545393C4A4949300159
:10026000710905033649494936064949291E0036B0
:100270003600000056360000000814224114141401
:10028000141441221408000201510906324979412F
:100290003E7E1111117E7F494949363E414141223E
:1002A0007F4141221C7F494949417F090901013EA3
:1002B000414151327F0808087F00417F41002040C2
:1002C000413F017F081422417F404040407F0204AB
:1002D000027F7F0408107F3E4141413E7F090909AA
:1002E000063E4151215E7F09192946464949493157
:1002F00001017F01013F4040403F1F2040201F7F00
:100300002018207F631408146303047804036151E8
:1003100049454300007F4141020408102041417FCC
:100320000000040201020440404040400001020479
:100330000020545454787F4844443838444444207E
:10034000384444487F3854545418087E0901020840
:100350001454543C7F0804047800447D400020403D
:10036000443D00007F10284400417F40007C041879
:1003700004787C0804047838444444387C14141409
:1003800008081414187C7C080404084854545420A9
:10039000043F4440203C4040207C1C2040201C3C2A
:1003A0004030403C44281028440C5050503C446499
:1003B000544C44000836410000007F0000004136E4
:1003C000080002010302010000000000000000001C
:1003D000065F5F0600000000070700070700001423
:1003E0007F7F147F7F1400242E6B6B3A120000462F
:1003F0006630180C666200307A4F5D377A48000428
:1004000007030000000000001C3E634100000000E4
:1004100041633E1C000000082A3E1C1C3E2A0808BE
:10042000083E3E0808000000A0E060000000000850
:100430000808080808000000006060000000006074
:1004400030180C060301003E7F594D7F3E000042EC
:10045000427F7F40400000627359496F660000226E
:100460006349497F360000181C16137F7F10002750
:100470006745457D3900003C7E4B497930000003DB
:100480006371190F070000367F49497F3600000667
:100490004F49693F1E000000006C6C000000000026
:1004A000A0EC6C00000000081C3663410000001442
:1004B00014141414140000004163361C08000002D8
:1004C0000351590F0600003E7F415D5D1F1E007CF9
:1004D0007E13137E7C0000417F7F49497F36001CDC
:1004E0003E634141632200417F7F41637F1C0041A5
:1004F0007F7F495D416300417F7F491D0103001CEF
:100500003E6341517372007F7F08087F7F000000C7
:10051000417F7F41000000307040417F3F0100413A
:100520007F7F081C776300417F7F41406070007FC0
:100530007F060C067F7F007F7F060C187F7F001CE4
:100540003E6341633E1C00417F7F49090F06001E48
:100550003F21717F5E0000417F7F19396F46002681
:10056000674D597B32000003417F7F410300007FCC
:100570007F40407F7F00001F3F60603F1F00007F83
:100580007F3018307F7F0063771C081C776300077B
:100590004F78784F0700006773594D47637100002B
:1005A0007F7F41410000000103060C18306000000D
:1005B00041417F7F000000080C0603060C08008004
:1005C000808080808080800000030704000000207D
:1005D0007454543C784000413F7F44447C38003898
:1005E0007C44446C280000307848493F7F40003804
:1005F0007C54545C180000487E7F49030200009838
:10060000BCA4A4F87C0400417F7F08047C7800002F
:10061000447D7D4000000040C484FD7D0000004119
:100620007F7F10386C440000417F7F400000007CD9
:100630007C0C180C7C78007C7C04047C78000038EE
:100640007C44447C38000084FCF8A4243C18001846
:100650003C24A4F8FC8400447C78441C1800004826
:100660005C54547424000000043E7F442400003C89
:100670007C40403C7C40001C3C60603C1C00003CDA
:100680007C6030607C3C00446C3810386C44009CCA
:10069000BCA0A0FC7C00004C64745C4C64000008AE
:1006A000083E7741410000000000777700000041DC
:1006B00041773E0808000002030103020301000025
:1006C00011241FBECFEFD4E0DEBFCDBF12E0A0E00B
:1006D000B1E0E0ECF8E102C005900D92A23AB1075A
:1006E000D9F722E0A2EAB2E001C01D92AE3AB20709
:1006F000E1F70E947F030C945E0C0C940000CF93F2
:10070000DF93CDB7DEB728970FB6F894DEBF0FBEE4
:10071000CDBF8FE190E00E94EA030E9413040E9483
:100720001C050E945A050E94C2050E94FB050E94FA
:10073000D50608E111E0BE016F5F7F4FCE0105963F
:100740000E94FC0487EA91E60197F1F700C00000DF
:1007500088858F938F818F938E818F938D818F93D7
:100760008C818F938B818F938A818F9389818F93D3
:100770001F930F930E94BD070FB6F894DEBF0FBE04
:10078000CDBFD9CF8FE591E00E94D307399A8FEF83
:100790008ABB30E020E007C080832F5F3F4F2115E8
:1007A00088E0380751F0F901F85EC9019078992383
:1007B0009CF701979F6F0196EFCF39980895159B8D
:1007C000FECF83B990E080E00895179BFECF83B100
:1007D00090E008959CBF80B988E181B98EE88CBF14
:1007E00065EE73E08FED93E00E9472070895F89430
:1007F0000F9A789408951F920F920FB60F921124BA
:100800008F939F9383B1813639F09F918F910F9091
:100810000FBE0F901F90189581E090E09093A30277
:100820008093A202F2CF85B7806885BF80B78062CF
:1008300080BF0895FB01FC5E808308959C5EFC01EF
:1008400080810895CF92DF92EF92FF920F931F93D2
:10085000CF93DF9386E791E00E94D3070E9462075F
:100860006C010E946707D0E0C0E010E000E00F2EAE
:10087000FDE8EF2EF1E0FF2EF02D05C02196C11509
:1008800098E0D907F1F00E946207FE01F85E8083CC
:100890002081281799F399279F938F931F922F9365
:1008A000DF93CF93FF92EF920E94BD070F5F1F4F20
:1008B0008DB79EB708960FB6F8949EBF0FBE8DBF3A
:1008C000DDCFC6010E946707D0E0C0E0F12CE12C2B
:1008D0000F2EF7ECCF2EF1E0DF2EF02D05C0219684
:1008E000C11598E0D907F1F00E946207FE01F85E99
:1008F00020812817A1F399279F938F931F922F93FD
:10090000DF93CF93DF92CF920E94BD078FEFE81A5B
:10091000F80A8DB79EB708960FB6F8949EBF0FBE23
:100920008DBFDDCFFF92EF921F930F9385E092E092
:100930009F938F930E94BD070F900F900F900F9081
:100940000F900F90DF91CF911F910F91FF90EF903B
:10095000DF90CF90089508950895FC018081089557
:10096000362F482F883F08F047EF403408F440E422
:10097000232F393F08F028EF203408F420E4803A90
:10098000F8F0405A550B64E6649FC001659F900DD6
:10099000112467E570E00E94EE06FB013E39F0F499
:1009A0002E59330B44E6429FC001439F900D112402
:1009B0006EE570E00E94EE069B01BF01C90108953B
:1009C000405A550B64E6649FC001659F900D112449
:1009D00060E670E00E94EE06FB01E0CF2E59330B7B
:1009E00044E6429FC001439F900D11246AE570E0E8
:1009F0000E94EE069B01E1CFCF93DF93DC01EB0178
:100A000010920010849BFECFE0E0F0E180816081D5
:100A1000208130E011963C932E93208130E0139694
:100A20003C932E9312970E94B004688379838A8343
:100A30009B83DF91CF9108958D9A80E48FBD89E0EB
:100A40008EBD1BBC1ABC0895CF93DF9382E692E063
:100A50000E94D3070E9462070E94670780910001ED
:100A600090910101892B79F0D0E0C0E00E946207EB
:100A7000FE01F05F80832196809100019091010139
:100A8000C817D90798F388E792E00E94D307DF914F
:100A9000CF910895C49A909A919A8130910531F03E
:100AA00018F0029729F00895C49808959098089531
:100AB0009198089587B3806A87BB81B3876081BBB3
:100AC00083E090E00E944A0581E58DB908958FB9D1
:100AD000779BFECF0895779BFECF8FB10895EF925D
:100AE000FF920F931F93CF93DF931416150664F4B0
:100AF0007B018C01EC01040F151FB70189910E9445
:100B00006705C017D107C9F7DF91CF911F910F91EA
:100B1000FF90EF900895EF92FF920F931F93CF9362
:100B2000DF931416150664F47B018C01EC01040FAD
:100B3000151FC7010E946B058993C017D107C9F71C
:100B4000DF91CF911F910F91FF90EF900895880F43
:100B5000991F880F991F845F9E4F08950895892BD0
:100B600011F0929A089592980895CF93C82F90E02B
:100B700080E00E94AF0562E070E08C2F0E94670564
:100B8000CF91089582E090E00E944A0581EA0E9498
:100B9000B50588EC0E94B5058FEA0E94B50583E093
:100BA00090E00E944A050895CF93C82F82E20E94E8
:100BB000B5058C2F0E94B50587E00E94B505CF9141
:100BC0000895CF93C82F81E20E94B5058C2F0E9413
:100BD000B5058FE70E94B505CF910895CF93C82F33
:100BE00081E090E00E94AF0562E070E08C2F0E94EF
:100BF0006705CF910895CF93DF9382E090E00E9444
:100C00004A0580E20E94B50580E00E94B50582E2B7
:100C10000E94B50580E00E94B50587E00E94B505F9
:100C2000C0E0D4E080E00E94EE052197D9F783E090
:100C300090E00E944A05DF91CF9108956F927F92D4
:100C40008F929F92AF92BF92CF92DF92EF92FF92DC
:100C50000F931F93CF93DF93EC01162F042FF9010D
:100C6000EE0FFF1FEE0FFF1FE45FFE4FC080D1802D
:100C7000728082E090E00E944A0580E20E94B50501
:100C800080E00E94B505802F0E94D405812F0E942C
:100C9000E10581E992E09F938F930DE812E01F93A5
:100CA0000F930E94BD07872C912CC60121E2729EF2
:100CB000800D911D11249F938F931F930F930E947A
:100CC000BD078881EDB7FEB738960FB6F894FEBF22
:100CD0000FBEEDBF8823D1F17E01FFEFEF1AFF0AAF
:100CE0000F2EFFE36F2EF02DAA24AA94A70C9601D5
:100CF0002F5F3F4FA20EB32EB11C22C07720C1F050
:100D0000082E000C990B8097889D8001899D100DFD
:100D1000989D100D1124E601C00FD11F0A0D1B1D57
:100D2000FE0184910E94EE052196C017D107C1F7FC
:100D300080E00E94EE05F70181917F01882331F068
:100D400090EE980F9F35D0F2862DD8CF83E090E0BB
:100D50000E944A0590E080E0DF91CF911F910F91B2
:100D6000FF90EF90DF90CF90BF90AF909F908F90CB
:100D70007F906F900895CF93C82F90E080E00E94FD
:100D8000AF0561E070E08C2F0E946705CF91089558
:100D9000CF93C82F81E090E00E94AF0561E070E042
:100DA0008C2F0E946705CF91089522E030E040E04B
:100DB0006DE282E992E00E941E0621E030E042E00E
:100DC00062E387E992E00E941E0621E030E044E001
:100DD00062E38CE992E00E941E06089597FB072EBD
:100DE00016F4009407D077FD09D00E94020707FC93
:100DF00005D03EF4909581959F4F0895709561952B
:100E00007F4F0895AA1BBB1B51E107C0AA1FBB1F40
:100E1000A617B70710F0A61BB70B881F991F5A9586
:100E2000A9F780959095BC01CD0108958F929F926E
:100E3000AF92BF92CF92DF92EF92FF92CF93DF9368
:100E4000EC01688179818A819B8161157105810539
:100E5000910521F464E279ED8BE597E02DE133EF24
:100E600041E050E00E94C40B49015A019B01AC01D2
:100E7000A7EAB1E40E94E30B6B017C01ACEEB4EF96
:100E8000A50194010E94F10BDC01CB018C0D9D1D8D
:100E9000AE1DBF1DB7FF03C00197A109B0488883ED
:100EA0009983AA83BB839F77DF91CF91FF90EF90C7
:100EB000DF90CF90BF90AF909F908F9008950E9449
:100EC0001607089582E091E00E9416070895B0E0A9
:100ED000A0E08093020190930301A0930401B093DA
:100EE000050108950F931F93CF93DF93009759F453
:100EF0006115710541F4F0E0E0E0CF01DF91CF91A1
:100F00001F910F9108958B01EC016EE070E081E07C
:100F100090E00E94D809FC01892B69F380E8838363
:100F20000115110571F01387028781E88383809191
:100F3000A4029091A502892B21F4F093A502E093DD
:100F4000A4022097D1F2D187C087838182608383F6
:100F50008091A6029091A702892B79F6F093A702BF
:100F6000E093A6028091A8029091A902892B29F60C
:100F7000F093A902E093A802C0CFB0E0A0E0E3ECB8
:100F8000F7E00C94060CAE014B5F5F4FFA016191E4
:100F90007191AF018091A6029091A7020E94FE0775
:100FA000E2E00C94220C0F931F93CF93DF93E09118
:100FB000A602F091A7022381EC0110E000E021FDE0
:100FC00008C00FEF1FEF14C00995892B11F00FEF28
:100FD0001FEF89916091A6027091A702DB0118961C
:100FE000ED91FC918111F0CF8AE00995892B49F7A9
:100FF000C801DF91CF911F910F910895ABE0B0E050
:10100000E4E0F8E00C94F60B7C013B018A01FC0162
:1010100017821682838181FFC8C1CE0101965C01CF
:10102000F7019381F30193FD859193FF81913F0136
:10103000882309F453C1853239F493FD859193FFD8
:1010400081913F01853229F4B70190E00E94360B6F
:10105000E7CF912C212C312CFFE1F31538F08B32A6
:1010600011F190F4803209F1833229F137FC3CC050
:1010700020ED280F2A3050F536FE20C08AE0989ED9
:10108000200D1124922E06C08D3291F0803371F71D
:10109000689430F8F30193FD859193FF81913F01AE
:1010A0008111DACF21C0689431F8689432F8F2CF18
:1010B000689433F8EFCF689434F8ECCFEAE02E9ED2
:1010C000200D1124222E689435F8E4CF8E3229F4B5
:1010D00036FC04C1689436F8DDCF8C3619F4689478
:1010E00037F8D8CF8836B1F2982F9F7D955493303A
:1010F000E0F08336A1F18337C1F1833509F063C095
:101100002801F2E04F0E511CF801C080D180692DFA
:1011100070E036FC02C06FEF7FEFC6010E94190B32
:101120004C01689437F882010AC00C5F1F4FFFE33F
:10113000F98388248394912C6501E89437F833FE71
:101140002DC0522C8114910471F5552009F468CFFB
:10115000B70180E290E00E94360B5A94F6CFF80176
:10116000808189830E5F1F4FE4CF2801F2E04F0E8C
:10117000511CF801C080D180692D70E036FC02C09E
:101180006FEF7FEFC6010E942B0B4C018201D5CF80
:10119000B70180E290E00E94360B2A9428141904CB
:1011A00009F0B0F7CECFF60137FC859137FE81917B
:1011B0006F01B70190E00E94360B51105A94F1E094
:1011C0008F1A9108BFCF843619F0893609F077C09D
:1011D000F80137FE6BC060817181828193810C5F61
:1011E0001F4FF32DFF763F2E97FF09C090958095F6
:1011F000709561957F4F8F4F9F4F689437F82AE025
:1012000030E0A5010E94660BC82ECA188C2C432C16
:1012100036FE0CC0E89440F8C91440F434FE05C012
:1012200032FC03C0F32DFE7E4F2E892C44FE95C068
:10123000FE01EC0DF11D8081803309F087C0242D63
:10124000297E422E842D8870582E43FC95C040FE86
:101250008FC09C2C821418F42C0C922C981844FEED
:1012600091C0B70180E390E00E94360B42FE09C0B6
:1012700088E790E041FE02C088E590E0B7010E9457
:10128000360BC91408F48AC0CA94D12C9FEFC91A2E
:10129000D90ACA0CDB1CF60182916F01B70190E0FC
:1012A0000E94360BAC14BD04B1F74FCF6081718141
:1012B000072E000C880B990B0E5F1F4F92CFD32C7B
:1012C000E894D4F82AE030E0853739F1232D297FDE
:1012D000D22E8F3601F148F48835A9F0F7018681C6
:1012E00097812B96E2E10C94120C803749F08837F5
:1012F000A9F7D4FE02C06894D2F820E130E00DC016
:101300006894D4F8F6CF34FE03C0822F8660D82EBE
:1013100020E132E002C028E030E0F801D7FE0FC043
:1013200060817181828193810C5F1F4FA5010E94B2
:10133000660BC82ECA183D2CE89437F867CF608139
:10134000718190E080E00E5F1F4FF0CF42FC02C041
:10135000839478CF8394839475CF842D867809F411
:1013600071CFF6CFB70180E290E00E94360B8394F4
:101370008214C0F3512C73CF522C5818821408F4E5
:101380006ECFF8CF842D867809F47BCF8BE241FEB7
:1013900080E247FC8DE2B70190E071CFB70180E3B6
:1013A00090E00E94360B9A946CCF8FEF9FEF99CF0D
:1013B0000F931F93CF93DF93869F8001879F100D1C
:1013C000969F100D1124C8010E94F409EC010097AA
:1013D00029F0A80170E060E00E94240BCE01DF91AB
:1013E000CF911F910F9108950F931F93CF93DF9388
:1013F0008230910510F482E090E0E091AC02F0912F
:10140000AD0230E020E0B0E0A0E0309799F4211583
:10141000310509F44AC0281B390B24303105D8F5B1
:101420008A819B816115710589F1FB019383828318
:10143000FE0111C040815181028113814817590773
:10144000E0F04817590799F4109761F012960C9341
:10145000129713961C933296CF01DF91CF911F9173
:101460000F9108950093AC021093AD02F4CF2115B3
:10147000310551F04217530738F0A901DB019A01F9
:10148000BD01DF01F801C1CFEF01F9CF9093AD02AB
:101490008093AC02CDCFFE01E20FF31F81939193B5
:1014A0002250310939832883D7CF2091AA02309165
:1014B000AB02232B41F420910801309109013093B4
:1014C000AB022093AA022091060130910701211559
:1014D000310541F42DB73EB740910A0150910B01FF
:1014E000241B350BE091AA02F091AB02E217F3073F
:1014F000A0F42E1B3F0B2817390778F0AC014E5F84
:101500005F4F2417350748F04E0F5F1F5093AB0213
:101510004093AA02819391939FCFF0E0E0E09CCFAB
:10152000CF93DF930097E9F0FC0132971382128288
:10153000A091AC02B091AD02ED0130E020E0109737
:10154000A1F420813181820F931F2091AA02309152
:10155000AB022817390709F061C0F093AB02E093A2
:10156000AA02DF91CF910895EA01CE17DF07E8F5CF
:101570004A815B819E0141155105B1F7E901FB8369
:10158000EA8349915991C40FD51FEC17FD0761F407
:10159000808191810296840F951FE9019983888348
:1015A000828193819B838A83F0E0E0E012968D91A3
:1015B0009C9113970097B9F52D913C911197CD010E
:1015C0000296820F931F2091AA023091AB02281736
:1015D000390739F6309751F51092AD021092AC02EE
:1015E000B093AB02A093AA02BCCFD383C283408145
:1015F0005181840F951FC817D90761F44E5F5F4F63
:1016000088819981480F591F518340838A819B812A
:10161000938382832115310509F0B0CFF093AD0299
:10162000E093AC029ECFFD01DC01C0CF1382128299
:10163000D7CFFC010590615070400110D8F780951C
:1016400090958E0F9F1F0895DC0101C06D9341504E
:101650005040E0F70895FC01615070400190011086
:10166000D8F7809590958E0F9F1F08950F931F9325
:10167000CF93DF93182F092FEB018B8181FD09C0D8
:101680001FEF0FEF812F902FDF91CF911F910F91BF
:10169000089582FF14C02E813F818C819D8128177F
:1016A00039073CF4E881F981CF0101969983888359
:1016B00010838E819F8101969F838E83E3CFE8857F
:1016C000F985812F0995892BA1F3DACFFA01AA2791
:1016D000283051F1203181F1E8946F936E7F6E5F75
:1016E0007F4F8F4F9F4FAF4FB1E03ED0B4E03CD023
:1016F000670F781F891F9A1FA11D680F791F8A1F06
:10170000911DA11D6A0F711D811D911DA11D20D06C
:1017100009F468943F912AE0269F11243019305D26
:101720003193DEF6CF010895462F4770405D419317
:10173000B3E00FD0C9F7F6CF462F4F70405D4A3364
:1017400018F0495D31FD4052419302D0A9F7EACF2C
:10175000B4E0A6959795879577956795BA95C9F75B
:1017600000976105710508959B01AC010A2E06944E
:101770005795479537952795BA95C9F7620F731F07
:10178000841F951FA01D0895052E97FB1EF400943D
:101790000E94DB0B57FD07D00E942D0C07FC03D0E5
:1017A0004EF40C94DB0B50954095309521953F4FAE
:1017B0004F4F5F4F089590958095709561957F4F3D
:1017C0008F4F9F4F08950E944F0CA59F900DB49F7F
:1017D000900DA49F800D911D11240895B7FF0C94C6
:1017E000E30B0E94E30B821B930B08952F923F9211
:1017F0004F925F926F927F928F929F92AF92BF9221
:10180000CF92DF92EF92FF920F931F93CF93DF93CC
:10181000CDB7DEB7CA1BDB0B0FB6F894DEBF0FBE29
:10182000CDBF09942A88398848885F846E847D8476
:101830008C849B84AA84B984C884DF80EE80FD8078
:101840000C811B81AA81B981CE0FD11D0FB6F894EE
:10185000DEBF0FBECDBFED010895A1E21A2EAA1B77
:10186000BB1BFD010DC0AA1FBB1FEE1FFF1FA21750
:10187000B307E407F50720F0A21BB30BE40BF50B4D
:10188000661F771F881F991F1A9469F760957095D6
:10189000809590959B01AC01BD01CF010895A29F59
:1018A000B001B39FC001A39F700D811D1124911D34
:1018B000B29F700D811D1124911D0895F894FFCFE2
:1018C0000004010000000000AE02200070000406C9
:1018D000EC010507C70308084A6F79737469636BE5
:1018E00020706F736974696F6E3A2020583A2533FF
:1018F00064092020593A253364202020536C696400
:10190000657220706F736974696F6E3A2020205879
:101910003A253364092020593A2533640D0A004CD6
:101920006174636820746573742073746172746980
:101930006E672E2E2E005374617274696E67205389
:1019400052414D20746573742E2E2E0D005772690E
:101950007465207068617365206572726F723A20D9
:101960006578745F72616D5B2534645D203D202570
:10197000303258202873686F756C642062652025AA
:10198000303258290D0A0052657472696576616CAF
:10199000207068617365206572726F723A20657895
:1019A000745F72616D5B2534645D203D20253032AB
:1019B00058202873686F756C64206265202530326A
:1019C00058290D0A005352414D20746573742063E9
:1019D0006F6D706C657465642077697468200D0A9A
:1019E000253464206572726F727320696E2077727D
:1019F00069746520706861736520616E64200D0AEA
:101A0000253464206572726F727320696E2072656E
:101A10007472696576616C2070686173650D0A0D7A
:101A20000A005374617274696E67204144432074E4
:101A30006573742E2E2E0D0041444320746573741B
:101A400020636F6D706C657465640D0A0025700D00
:101A50000A004D454E5500504C41590045584954D7
:021A6000000084
:00000001FF
