:100000000C9438000C9455000C9455000C94550039
:100010000C9455000C9455000C9455000C9455000C
:100020000C9455000C9455000C9455000C945500FC
:100030000C9455000C9455000C9455000C945500EC
:100040000C9455000C9455000C9455000C945500DC
:100050000C94AB000C9455000C9455000C94550076
:100060000C9455000C9455000C9455000C945500BC
:1000700011241FBECFEFD4E0DEBFCDBF12E0A0E061
:10008000B1E0EAE2FEE002C005900D92A43AB107A9
:10009000D9F722E0A4EAB2E001C01D92A03BB2076A
:1000A000E1F70E9457000C9413070C9400008FE1B5
:1000B00090E00E949A000E94C3000E949D01CCE043
:1000C000D1E00E9468011F929F931F928F93DF934C
:1000D000CF930E9472020F900F900F900F900F908D
:1000E0000F90EFCF8DE291E00E948802399A8FEF56
:1000F0008ABB30E020E007C080832F5F3F4F21158F
:1001000088E0380751F0F901F85EC9019078992329
:100110009CF701979F6F0196EFCF39980895159B33
:10012000FECF83B990E080E00895179BFECF83B1A6
:1001300090E008959CBF80B988E181B98EE88CBFBA
:1001400065E970E08FE890E00E9427020895F89436
:100150000F9A789408951F920F920FB60F92112460
:100160008F939F9383B1813639F09F918F910F9038
:100170000FBE0F901F90189581E090E09093A5021C
:100180008093A402F2CF85B7806885BF80B7806274
:1001900080BF0895FB01FC5E808308959C5EFC0196
:1001A00080810895CF92DF92EF92FF920F931F9379
:1001B000CF93DF9384E491E00E9488020E941702AB
:1001C0006C010E941C02D0E0C0E010E000E00F2EA5
:1001D000FBE5EF2EF1E0FF2EF02D05C02196C115B5
:1001E00098E0D907F1F00E941702FE01F85E8083C3
:1001F0002081281799F399279F938F931F922F930C
:10020000DF93CF93FF92EF920E9472020F5F1F4F16
:100210008DB79EB708960FB6F8949EBF0FBE8DBFE0
:10022000DDCFC6010E941C02D0E0C0E0F12CE12C21
:100230000F2EF5E9CF2EF1E0DF2EF02D05C021962F
:10024000C11598E0D907F1F00E941702FE01F85E8F
:1002500020812817A1F399279F938F931F922F93A3
:10026000DF93CF93DF92CF920E9472028FEFE81A52
:10027000F80A8DB79EB708960FB6F8949EBF0FBECA
:100280008DBFDDCFFF92EF921F930F9383ED91E02F
:100290009F938F930E9472020F900F900F900F9078
:1002A0000F900F90DF91CF911F910F91FF90EF90E2
:1002B000DF90CF90089508950895CF93DF93EC01D8
:1002C00080E392E00E9488028881DF91CF910895B7
:1002D000CF93DF9386E492E00E9488021092001090
:1002E00088E692E00E948802829910C0CEE6D2E0B1
:1002F00080B384701F928F93DF93CF930E9472021A
:100300000F900F900F900F90829BF2CF80E090E1C2
:100310000E945D01C82F80E090E10E945D01D82F0E
:1003200080E090E10E945D0180E090E10E945D012B
:100330008D2F9C2FDF91CF9108958C9A80E18FBDF6
:1003400089E08EBD19BC18BC0895CF93DF9389E76F
:1003500092E00E9488020E9417020E941C02809173
:10036000000190910101892B79F0D0E0C0E00E945A
:100370001702FE01F05F8083219680910001909129
:100380000101C817D90798F38FE892E00E9488020C
:10039000DF91CF9108958F929F92AF92BF92CF92AB
:1003A000DF92EF92FF92CF93DF93EC016881798126
:1003B0008A819B81611571058105910521F464E2B3
:1003C00079ED8BE597E02DE133EF41E050E00E94BD
:1003D000790649015A019B01AC01A7EAB1E40E94E8
:1003E00098066B017C01ACEEB4EFA50194010E946C
:1003F000A606DC01CB018C0D9D1DAE1DBF1DB7FFF8
:1004000003C00197A109B04888839983AA83BB835D
:100410009F77DF91CF91FF90EF90DF90CF90BF90CB
:10042000AF909F908F9008950E94CB01089582E035
:1004300091E00E94CB010895B0E0A0E0809302011A
:1004400090930301A0930401B093050108950F93C5
:100450001F93CF93DF93009759F46115710541F411
:10046000F0E0E0E0CF01DF91CF911F910F9108956F
:100470008B01EC016EE070E081E090E00E948D0461
:10048000FC01892B69F380E883830115110571F064
:100490001387028781E883838091A6029091A70247
:1004A000892B21F4F093A702E093A6022097D1F2C2
:1004B000D187C0878381826083838091A8029091D5
:1004C000A902892B79F6F093A902E093A802809102
:1004D000AA029091AB02892B29F6F093AB02E0932C
:1004E000AA02C0CFB0E0A0E0E8E7F2E00C94BB06BF
:1004F000AE014B5F5F4FFA0161917191AF01809145
:10050000A8029091A9020E94B302E2E00C94D706DF
:100510000F931F93CF93DF93E091A802F091A9026C
:100520002381EC0110E000E021FD08C00FEF1FEF78
:1005300014C00995892B11F00FEF1FEF899160917D
:10054000A8027091A902DB011896ED91FC9181112E
:10055000F0CF8AE00995892B49F7C801DF91CF9147
:100560001F910F910895ABE0B0E0E9EBF2E00C943D
:10057000AB067C013B018A01FC0117821682838154
:1005800081FFC8C1CE0101965C01F7019381F3019F
:1005900093FD859193FF81913F01882309F453C115
:1005A000853239F493FD859193FF81913F01853226
:1005B00029F4B70190E00E94EB05E7CF912C212CA4
:1005C000312CFFE1F31538F08B3211F190F48032C9
:1005D00009F1833229F137FC3CC020ED280F2A3085
:1005E00050F536FE20C08AE0989E200D1124922EF0
:1005F00006C08D3291F0803371F7689430F8F301C2
:1006000093FD859193FF81913F018111DACF21C044
:10061000689431F8689432F8F2CF689433F8EFCFE9
:10062000689434F8ECCFEAE02E9E200D1124222E9F
:10063000689435F8E4CF8E3229F436FC04C168940E
:1006400036F8DDCF8C3619F4689437F8D8CF883671
:10065000B1F2982F9F7D95549330E0F08336A1F14D
:100660008337C1F1833509F063C02801F2E04F0EF2
:10067000511CF801C080D180692D70E036FC02C0A9
:100680006FEF7FEFC6010E94CE054C01689437F8EA
:1006900082010AC00C5F1F4FFFE3F9838824839413
:1006A000912C6501E89437F833FE2DC0522C81144B
:1006B000910471F5552009F468CFB70180E290E00C
:1006C0000E94EB055A94F6CFF801808189830E5F72
:1006D0001F4FE4CF2801F2E04F0E511CF801C080FB
:1006E000D180692D70E036FC02C06FEF7FEFC6014C
:1006F0000E94E0054C018201D5CFB70180E290E075
:100700000E94EB052A942814190409F0B0F7CECF03
:10071000F60137FC859137FE81916F01B70190E0BA
:100720000E94EB0551105A94F1E08F1A9108BFCF47
:10073000843619F0893609F077C0F80137FE6BC0AE
:1007400060817181828193810C5F1F4FF32DFF7651
:100750003F2E97FF09C090958095709561957F4FCA
:100760008F4F9F4F689437F82AE030E0A5010E9430
:100770001B06C82ECA188C2C432C36FE0CC0E894DD
:1007800040F8C91440F434FE05C032FC03C0F32D18
:10079000FE7E4F2E892C44FE95C0FE01EC0DF11D0E
:1007A0008081803309F087C0242D297E422E842D3C
:1007B0008870582E43FC95C040FE8FC09C2C82143C
:1007C00018F42C0C922C981844FE91C0B70180E3C9
:1007D00090E00E94EB0542FE09C088E790E041FEF0
:1007E00002C088E590E0B7010E94EB05C91408F447
:1007F0008AC0CA94D12C9FEFC91AD90ACA0CDB1C33
:10080000F60182916F01B70190E00E94EB05AC14F4
:10081000BD04B1F74FCF60817181072E000C880BAA
:10082000990B0E5F1F4F92CFD32CE894D4F82AE097
:1008300030E0853739F1232D297FD22E8F3601F113
:1008400048F48835A9F0F701868197812B96E2E17B
:100850000C94C706803749F08837A9F7D4FE02C048
:100860006894D2F820E130E00DC06894D4F8F6CF57
:1008700034FE03C0822F8660D82E20E132E002C011
:1008800028E030E0F801D7FE0FC0608171818281DD
:1008900093810C5F1F4FA5010E941B06C82ECA182A
:1008A0003D2CE89437F867CF6081718190E080E05B
:1008B0000E5F1F4FF0CF42FC02C0839478CF839429
:1008C000839475CF842D867809F471CFF6CFB70164
:1008D00080E290E00E94EB0583948214C0F3512CD7
:1008E00073CF522C5818821408F46ECFF8CF842D91
:1008F000867809F47BCF8BE241FE80E247FC8DE2F3
:10090000B70190E071CFB70180E390E00E94EB0562
:100910009A946CCF8FEF9FEF99CF0F931F93CF9344
:10092000DF93869F8001879F100D969F100D1124E5
:10093000C8010E94A904EC01009729F0A80170E009
:1009400060E00E94D905CE01DF91CF911F910F91F8
:1009500008950F931F93CF93DF938230910510F486
:1009600082E090E0E091AE02F091AF0230E020E052
:10097000B0E0A0E0309799F42115310509F44AC0A0
:10098000281B390B24303105D8F58A819B816115EC
:10099000710589F1FB0193838283FE0111C04081BF
:1009A00051810281138148175907E0F04817590710
:1009B00099F4109761F012960C93129713961C936A
:1009C0003296CF01DF91CF911F910F91089500933F
:1009D000AE021093AF02F4CF2115310551F042174A
:1009E000530738F0A901DB019A01BD01DF01F801CD
:1009F000C1CFEF01F9CF9093AF028093AE02CDCF7C
:100A0000FE01E20FF31F8193919322503109398344
:100A10002883D7CF2091AC023091AD02232B41F433
:100A200020910801309109013093AD022093AC026E
:100A300020910601309107012115310541F42DB7B0
:100A40003EB740910A0150910B01241B350BE091F8
:100A5000AC02F091AD02E217F307A0F42E1B3F0B9E
:100A60002817390778F0AC014E5F5F4F2417350720
:100A700048F04E0F5F1F5093AD024093AC0281933C
:100A800091939FCFF0E0E0E09CCFCF93DF9300976E
:100A9000E9F0FC01329713821282A091AE02B0916C
:100AA000AF02ED0130E020E01097A1F42081318108
:100AB000820F931F2091AC023091AD0228173907A5
:100AC00009F061C0F093AD02E093AC02DF91CF91E9
:100AD0000895EA01CE17DF07E8F54A815B819E01A0
:100AE00041155105B1F7E901FB83EA834991599119
:100AF000C40FD51FEC17FD0761F480819181029628
:100B0000840F951FE90199838883828193819B8358
:100B10008A83F0E0E0E012968D919C911397009704
:100B2000B9F52D913C911197CD010296820F931F3B
:100B30002091AC023091AD022817390739F6309771
:100B400051F51092AF021092AE02B093AD02A09395
:100B5000AC02BCCFD383C28340815181840F951FE7
:100B6000C817D90761F44E5F5F4F88819981480F9C
:100B7000591F518340838A819B81938382832115EE
:100B8000310509F0B0CFF093AF02E093AE029ECFF3
:100B9000FD01DC01C0CF13821282D7CFFC0105908A
:100BA000615070400110D8F7809590958E0F9F1F6F
:100BB0000895DC0101C06D9341505040E0F7089565
:100BC000FC016150704001900110D8F7809590951C
:100BD0008E0F9F1F08950F931F93CF93DF93182FAE
:100BE000092FEB018B8181FD09C01FEF0FEF812FD2
:100BF000902FDF91CF911F910F91089582FF14C024
:100C00002E813F818C819D81281739073CF4E88132
:100C1000F981CF0101969983888310838E819F810A
:100C200001969F838E83E3CFE885F985812F09950F
:100C3000892BA1F3DACFFA01AA27283051F120310C
:100C400081F1E8946F936E7F6E5F7F4F8F4F9F4F60
:100C5000AF4FB1E03ED0B4E03CD0670F781F891FA2
:100C60009A1FA11D680F791F8A1F911DA11D6A0F70
:100C7000711D811D911DA11D20D009F468943F9123
:100C80002AE0269F11243019305D3193DEF6CF0122
:100C90000895462F4770405D4193B3E00FD0C9F7E8
:100CA000F6CF462F4F70405D4A3318F0495D31FD55
:100CB0004052419302D0A9F7EACFB4E0A6959795A8
:100CC000879577956795BA95C9F70097610571057E
:100CD00008959B01AC010A2E0694579547953795C8
:100CE0002795BA95C9F7620F731F841F951FA01D22
:100CF0000895052E97FB1EF400940E94900657FD60
:100D000007D00E94E20607FC03D04EF40C94900634
:100D100050954095309521953F4F4F4F5F4F089527
:100D200090958095709561957F4F8F4F9F4F089557
:100D30000E940407A59F900DB49F900DA49F800D65
:100D4000911D11240895B7FF0C9498060E949806EF
:100D5000821B930B08952F923F924F925F926F9256
:100D60007F928F929F92AF92BF92CF92DF92EF923B
:100D7000FF920F931F93CF93DF93CDB7DEB7CA1BBC
:100D8000DB0B0FB6F894DEBF0FBECDBF09942A88E7
:100D9000398848885F846E847D848C849B84AA848F
:100DA000B984C884DF80EE80FD800C811B81AA811C
:100DB000B981CE0FD11D0FB6F894DEBF0FBECDBFE7
:100DC000ED010895A1E21A2EAA1BBB1BFD010DC067
:100DD000AA1FBB1FEE1FFF1FA217B307E407F507EB
:100DE00020F0A21BB30BE40BF50B661F771F881FC7
:100DF000991F1A9469F760957095809590959B015D
:100E0000AC01BD01CF010895A29FB001B39FC00105
:100E1000A39F700D811D1124911DB29F700D811D26
:0A0E20001124911D0895F894FFCFEE
:100E2A000004010000000000B00220004A6F79733C
:100E3A007469636B20706F736974696F6E2C2058C4
:100E4A003A2564092020593A25640D0A004C617438
:100E5A0063682074657374207374617274696E6751
:100E6A002E2E2E005374617274696E67205352419C
:100E7A004D20746573742E2E2E0D00577269746599
:100E8A00207068617365206572726F723A206578A6
:100E9A00745F72616D5B2534645D203D20253032BC
:100EAA0058202873686F756C64206265202530327B
:100EBA0058290D0A0052657472696576616C207052
:100ECA0068617365206572726F723A206578745F23
:100EDA0072616D5B2534645D203D202530325820D7
:100EEA002873686F756C6420626520253032582932
:100EFA000D0A005352414D207465737420636F6D5F
:100F0A00706C657465642077697468200D0A2534ED
:100F1A0064206572726F727320696E2077726974C9
:100F2A006520706861736520616E64200D0A25343E
:100F3A0064206572726F727320696E2072657472B2
:100F4A00696576616C2070686173650D0A0D0A0027
:100F5A0052656164696E6720414443206368616E2B
:100F6A006E656C2E0D005374617274696E67206A27
:100F7A006F79737469636B20706F736974696F6ECC
:100F8A0020726561642E0D00546573740D004275FC
:100F9A0073793A2025640D0A005374617274696E7C
:100FAA00672041444320746573742E2E2E0D004130
:100FBA004443207465737420636F6D706C65746547
:040FCA00640D0A00A8
:00000001FF
