:100000000C9438000C9455000C9455000C94550039
:100010000C9455000C9455000C9455000C9455000C
:100020000C9455000C9455000C9455000C945500FC
:100030000C9455000C9455000C9455000C945500EC
:100040000C9455000C9455000C9455000C945500DC
:100050000C94A7000C9455000C9455000C9455007A
:100060000C9455000C9455000C9455000C945500BC
:1000700011241FBECFEFD4E0DEBFCDBF11E0A0E062
:10008000B1E0EEEFF4E002C005900D92A632B107A8
:10009000D9F721E0A6E2B1E001C01D92A233B20778
:1000A000E1F70E9474000C947D020C94000086E03D
:1000B00091E00E940A01399A8FEF8ABB30E020E07C
:1000C00007C080832F5F3F4F211588E0380751F02C
:1000D000F901F85EC901907899239CF701979F6F09
:1000E0000196EFCF399808958FE190E00E94960035
:1000F0000E94A3000E945700809126019091270141
:10010000892BC1F38DE191E00E940A011092270131
:1001100010922601EFCF159BFECF83B990E080E0CF
:100120000895179BFECF83B190E008959CBF80B9DE
:1001300088E181B98EE88CBF61E970E08BE890E0DE
:100140000E94BF000895F8940F9A789408951F9222
:100150000F920FB60F9211248F939F9383B1813624
:1001600039F09F918F910F900FBE0F901F901895AF
:1001700081E090E09093270180932601F2CF0F93C6
:100180001F93CF93DF93009759F46115710541F4E4
:10019000F0E0E0E0CF01DF91CF911F910F91089542
:1001A0008B01EC016EE070E081E090E00E9435018F
:1001B000FC01892B69F380E883830115110571F037
:1001C0001387028781E88383809128019091290118
:1001D000892B21F4F0932901E09328012097D1F293
:1001E000D187C08783818260838380912A01909127
:1001F0002B01892B79F6F0932B01E0932A01809152
:100200002C0190912D01892B29F6F0932D01E0937B
:100210002C01C0CF0F931F93CF93DF93E0912A015E
:10022000F0912B012381EC0110E000E021FD08C0DA
:100230000FEF1FEF14C00995892B11F00FEF1FEF7F
:10024000899160912A0170912B01DB011896ED9143
:10025000FC918111F0CF8AE00995892B49F7C801FB
:10026000DF91CF911F910F9108950F931F93CF931B
:10027000DF93869F8001879F100D969F100D11249C
:10028000C8010E945101EC01009729F0A80170E01B
:1002900060E00E947602CE01DF91CF911F910F9115
:1002A00008950F931F93CF93DF938230910510F43D
:1002B00082E090E0E0913001F091310130E020E007
:1002C000B0E0A0E0309799F42115310509F44AC057
:1002D000281B390B24303105D8F58A819B816115A3
:1002E000710589F1FB0193838283FE0111C0408176
:1002F00051810281138148175907E0F048175907C7
:1003000099F4109761F012960C93129713961C9320
:100310003296CF01DF91CF911F910F9108950093F5
:10032000300110933101F4CF2115310551F04217FE
:10033000530738F0A901DB019A01BD01DF01F80183
:10034000C1CFEF01F9CF9093310180933001CDCF30
:10035000FE01E20FF31F81939193225031093983FB
:100360002883D7CF20912E0130912F01232B41F4E8
:10037000209102013091030130932F0120932E012F
:1003800020910001309101012115310541F42DB773
:100390003EB74091040150910501241B350BE091BB
:1003A0002E01F0912F01E217F307A0F42E1B3F0B53
:1003B0002817390778F0AC014E5F5F4F24173507D7
:1003C00048F04E0F5F1F50932F0140932E018193F1
:1003D00091939FCFF0E0E0E09CCFCF93DF93009725
:1003E000E9F0FC01329713821282A0913001B091A2
:1003F0003101ED0130E020E01097A1F4208131813E
:10040000820F931F20912E0130912F012817390759
:1004100009F061C0F0932F01E0932E01DF91CF919D
:100420000895EA01CE17DF07E8F54A815B819E0156
:1004300041155105B1F7E901FB83EA8349915991CF
:10044000C40FD51FEC17FD0761F4808191810296DE
:10045000840F951FE90199838883828193819B830F
:100460008A83F0E0E0E012968D919C9113970097BB
:10047000B9F52D913C911197CD010296820F931FF2
:1004800020912E0130912F012817390739F6309726
:1004900051F51092310110923001B0932F01A093C9
:1004A0002E01BCCFD383C28340815181840F951F1D
:1004B000C817D90761F44E5F5F4F88819981480F53
:1004C000591F518340838A819B81938382832115A5
:1004D000310509F0B0CFF0933101E09330019ECFA8
:1004E000FD01DC01C0CF13821282D7CFDC0101C035
:0E04F0006D9341505040E0F70895F894FFCF0F
:1004FE000000320120004C617463682074657374CF
:10050E00207374617274696E672E2E2E00526563AD
:06051E00656976656400CA
:00000001FF
